:020000040800F2
:10000000B01E002035020008591C0008171C00080B
:10001000551C00081D1A0008AB2E00080000000047
:10002000000000000000000000000000D12A0008CD
:10003000E51A000800000000C3020008E52B0008D4
:100040004F0200084F0200084F0200084F0200084C
:100050004F0200084F0200084F0200084F0200083C
:100060004F0200084F0200084F0200084F0200082C
:100070004F0200084F0200084F0200084F0200081C
:100080004F0200084F0200084F0200084F0200080C
:100090004F0200084F0200084F0200084F020008FC
:1000A0004F0200084F0200084F0200084F020008EC
:1000B0004F0200084F0200084F0200084F020008DC
:1000C0004F0200084F0200084F0200084F020008CC
:1000D0004F020008612C00084F0200084F02000880
:1000E0004F0200084F0200084F02000800F002F81B
:1000F00000F090F80AA090E8000C82448344AAF132
:100100000107DA4501D100F085F8AFF2090EBAE82F
:100110000F0013F0010F18BFFB1A43F0010318473B
:10012000D03A0000F03A0000103A24BF78C878C1F5
:10013000FAD8520724BF30C830C144BF04680C60ED
:10014000704700000023002400250026103A28BF35
:1001500078C1FBD8520728BF30C148BF0B60704739
:100160006E2900F0D182702900F03B84662903F0EB
:10017000F583652903F0F283672903F0EF83612992
:10018000AFF3008003681B0A28BF41F08001692992
:1001900000F07E82642900F07B82752900F078826D
:1001A0006F2900F0C983782900F00784E92900F05D
:1001B0006383E42900F06083F52900F05D83EF2973
:1001C00000F0C683F82900F006840368DB0928BF25
:1001D00041F08001632900F0D282732900F0D782B8
:1001E000E32900F0E586F32900F0EA860020704755
:1001F0001FB500F03BFF04000020002103F098FB36
:10020000401C60600020002103F07CFBE0601FBD0B
:1002100010B510BD00F0FCFE1146FFF7E9FF03F03A
:10022000D5F800F0D5FF03B4FFF7F2FF03BC02F0EE
:1002300059FE00000948804709480047FEE7FEE7ED
:10024000FEE7FEE7FEE7FEE7FEE7FEE7FEE7FEE786
:1002500004480549054A064B70470000012C000878
:10026000ED000008B0180020B01E0020B01A0020D9
:10027000B01A0020EFF3108072B6704780F3108838
:100280007047204C204D25604FF0000484F309880E
:100290001E4C4FF0010525701D4C4FF08055256018
:1002A00062B6FEE730B41A4C4FF08055256030BC82
:1002B000704730B4164C4FF08055256030BC704705
:1002C00000BF72B6EFF3098028B1203880E8F00F44
:1002D00010490968086000B50F4880475DF804EBD5
:1002E0000E480F490A7802700A480E490A680260EF
:1002F000106890E8F00F203080F309884EF0040E6B
:1003000062B6704720ED00E00000FFFFAA00002069
:1003100004ED00E0B0000020512200089F00002002
:10032000A0000020B8000020704700001CB50C465B
:10033000064B7B4469460090204600F0FEF90446D7
:100340000020694600F00CFA20461CBD2B0400007A
:100350000FB4044910B503AA029800F01DFA10BCAE
:100360005DF814FB7C0000200FB41CB5084B06AAF6
:100370007B4469460090059800F0DFF904460020B0
:10038000694600F0EDF920461CBC5DF814FB000046
:10039000ED03000070B50C460546012A05D028780B
:1003A000800600D5EA69002302E0012305E05B1C1A
:1003B000934202D2E05C0028F9D1A869E618C01A7D
:1003C000A861286A18442862284600F028F904E049
:1003D000D5E9012114F8010B9047B442F8D328461F
:1003E00000F033F970BD00002DE9F05F8946044646
:1003F0004FF0000ADFF874B1FB44C0F820A020469B
:10040000E1688847002874D0252806D0D4E9012166
:100410009047206A401C2062F1E700265F46204694
:10042000E16888472028054607DB312D05D2781979
:1004300010F8200C08B10643F1E7B00701D526F00B
:100440000406C4F81CA00027C4F818A02A2D09D05F
:10045000284602F040FD38B304EB8708303DC8F869
:10046000185019E059F8041B204604EB87029161EB
:10047000E1688847012F054618D1E069002820DA95
:1004800026F020061DE0D8F8180000EB800005EBF0
:1004900040003038C8F818002046E1688847054613
:1004A00002F019FD0028EED1012F0AD02E2D08D11F
:1004B0002046E16888477F1C0546022F46F020064B
:1004C000C4DBA069002803DA404246F00106A061BF
:1004D000F00701D026F010066C2D0BD0682D09D046
:1004E0004C2D39D06A2D35D0742D35D07A2D33D09E
:1004F00016E038E0E1682F4620468847B8420546B6
:1005000009D16C2F26D04FF48060E1680643204665
:100510008847054604E06C2F1AD04FF480700643DC
:100520000DB3A5F14100192802D8203546F4006624
:100530004A462946204626604E46FFF711FE80B106
:1005400001280BD0F61D26F0070000F1080956E738
:100550004020E4E78020D8E70020D6E706F1040930
:100560004DE7284652E7206ABDE8F09F6436000058
:1005700030B505460B462A4613F8014B12F8010B1D
:1005800008B1A042F8D01CB1002802D06D1CF1E7E0
:10059000284630BD10B5431C02E010F8011B71B1B4
:1005A0008107FAD14FF0013202C88C1A8C4314EA49
:1005B000C211F9D0C01A0A0603D0C01E10BDC01A5D
:1005C00010BD0A0401D0801E10BD0902FCD0401EDF
:1005D00010BD4FF000020429C0F0128010F0030C8F
:1005E00000F00C82CCF1040CBCF1020F18BF00F833
:1005F000012BA8BF20F8022BA1EB0C0100F0FEB9E3
:100600005FEAC17C24BF00F8012B00F8012B48BF32
:1006100000F8012B7047704770477047704770B5FE
:10062000044685690068C10601D5302600E0202611
:10063000C00707D070BDD4E9012130469047206A39
:10064000401C20626D1EF6D570BD70B504468569EC
:100650000078C00707D170BDD4E901212020904760
:10066000206A401C20626D1EF6D570BD09684A05DF
:1006700001D540B27047C905FCD500B27047096882
:100680004A0501D5C0B27047C905FCD580B2704794
:100690002DE9F0410646002410687529314616A55B
:1006A00010D0FFF7E3FF002802DA404213A507E06D
:1006B00031688A0701D512A502E0490704D511A5C2
:1006C000012401E0FFF7DBFF00210A2206F12407E5
:1006D00009E0B0FBF2FCB0FBF2F302FB1C0030308F
:1006E00078541846491C0028F3D123462A46304640
:1006F000BDE8F04100F0ECB9000000002D00000062
:100700002B0000002000000011680268006A5305F9
:1007100001D508700AE0D30501D5088006E013066C
:1007200003D5C217C1E9000200E00860012070474C
:1007300001694A1C02610878704700B58FB0CDE9A5
:1007400001310021059105497944CDE90310114695
:100750006846FFF749FE0FB000BD0000E5FFFFFF50
:100760000A6802F8010B0A60704710B5436913B1BB
:10077000AFF3008001E0FFF70DFE012010BD1278FD
:1007800000F124010A7000224A700122EDE711688D
:100790004FF0FF32E9E70000074B70B50D467B4490
:1007A000FFF7CBFF0446284600F00EFC10B14FF0D7
:1007B000FF3070BD204670BDD32B00002DE9FF5FD8
:1007C00015468A460446DFF8AC80F8440027D8E98D
:1007D00000103E46CDE9001010E03AF816106A46C7
:1007E00002A800F0F5FB411C07D02178890603D54B
:1007F000E269391891420DD80744761C20788006AA
:1008000002D5E069B84205DDAE42E6DB3AF81600F3
:100810000028E2D1A069C01BA0612046FFF7FFFEBF
:10082000D8E90010CDE90010002017E03AF81810C0
:100830006A4602A800F0CCFBB0F1FF3F81460BD026
:1008400000250DF1080B05E0D4E901211BF8050096
:1008500090476D1C4D45F7D308F10100B04280462A
:10086000E4DB206A384420622046FFF7EEFEBDE854
:10087000FF9F0000A63200002DE9F0418046D21D06
:1008800022F007020025D2E90002F52915A614D0AE
:10089000011E72F1000106DA0023D0EB030063EBC6
:1008A000020211A608E0D8F800108B0701D50FA6A8
:1008B00002E0490701D50EA601251146002408F1E2
:1008C000240704E000F0BFF830323A55641C50EAC7
:1008D0000102F7D12B46324621464046BDE8F041A1
:1008E00000F0F6B8000000002D0000002B00000012
:1008F0002000000030B4002100F1240408E002F0E0
:100900000705D208303542EA4372DB086554491CBA
:1009100052EA0305F3D10468002310A2250708D585
:1009200004F020040C4304D0C46901230CA2641E0B
:10093000C46130BC00F0CCB810B504462146106844
:10094000FFF79DFE02462046BDE810400023D1E798
:10095000D21D22F00701D1E90023CBE700000000FF
:1009600030000000F0B40D460188090502D5214C85
:100970007C4402E01F4C7C440E34002100F124062C
:1009800008E002F00F071209E75D42EA03721B0953
:100990007754491C52EA0307F3D102780023120767
:1009A00004D5702D06D009B1022311342246F0BCC3
:1009B00000F08EB801231034F8E770B504460D46F8
:1009C00021461068FFF75BFE024629462046BDE837
:1009D00070400023C6E7D21D22F00703D3E90023AD
:1009E000C0E70368126843F0200303600823C36173
:1009F0000023B7E7083100004FF0000200B51346AE
:100A000094469646203922BFA0E80C50A0E80C502E
:100A1000B1F12001BFF4F7AF090728BFA0E80C50DF
:100A200048BF0CC05DF804EB890028BF40F8042BD8
:100A300008BF704748BF20F8022B11F0804F18BF45
:100A400000F8012B704730B5B0F10A024FEA900E62
:100A500071F100034EEA817EB0EB0E0061EB910173
:100A60004FEA101E4EEA017E10EB0E0041EB111111
:100A70004FEA102E4EEA016E10EB0E0041EB1121F1
:100A80004FEA104E4EEA014E10EB0E0041EB1141C1
:100A9000401841F100014FEAD00040EA41704FEAAE
:100AA000D10110EB80054FEA810444EA907444EBD5
:100AB00001046D1944EB0404521BA3414FF00003E1
:100AC00048BF0A3200D530BD401C41F1000130BDA5
:100AD0002DE9F0470D4699469246044600F1240858
:100AE0000168880604D5E06921F01001216000E06A
:100AF0000120A84201DD471B00E00027A1697A1907
:100B000002EB0900081AA0612078C00602D4204632
:100B1000FFF785FD002608E0D4E901211AF8060058
:100B20009047206A401C761C20624E45F4DB2078FA
:100B3000C0060AD52046FFF772FD06E0D4E9012180
:100B400030209047206A401C2062381EA7F1010720
:100B5000F4DC07E0D4E9012118F805009047206A89
:100B6000401C2062281EA5F10105F3DC2046FFF79A
:100B70006CFD2078000602D50220BDE8F087012038
:100B8000FBE770472DE9FF4F0C461E464FF0FF373D
:100B90008BB0D2E90001DDF860800A908A46C1F38B
:100BA0000A5505B93D46002108464FF00000BAF14C
:100BB000000F00F4400005DA00EB80004FF4400124
:100BC00001EA50004FEA9059B9F1010F00DDB94632
:100BD0000A9850EA4A000ED044F61050A5F2FF35AC
:100BE00045432F14B8F1000F1ED07542291E1EDD9B
:100BF000C9F100021CE0B8F1010F4FF0000001D074
:100C0000302103E0F24305E02154401CB042FBDBFD
:100C100030460022002121540B99C1F80880C1E917
:100C200000200FB0BDE8F08FBD1B6D1CDEE74A460B
:100C300000DA694206A800F05DFA06AB93E8070007
:100C400003AB83E8070050460A9900F00FFB8DE8DC
:100C50000700A0F500501F3800900398002D09DD13
:100C600042F21F014A46084403A90390684600F077
:100C70006EFD08E0A0F500504A461F3803A9039016
:100C8000684600F078FD8DE807000004000C03D0F2
:100C90004FF0FF30410800E01046B8F1000F03D0DC
:100CA0000022009215461EE0751E05D4FFF7CBFE0C
:100CB000303262556D1EF9D5B3460122084302D089
:100CC00000227F1C04E02078302801D100227F1E02
:100CD000002A099786D01DE0112D07DAFFF7B3FE31
:100CE000303262556D1C50EA0102F5D1084302D042
:100CF0000098C8B10EE00021681E05E0235C625C2C
:100D000063542254401E491C8142F7DBAB46A81BAA
:100D1000401E0990002004F80B000B98099AC0F8B7
:100D20000880C0E9002B7CE711264FF0000859E746
:100D30002DE9F04F88460446D21D22F0070191B0FC
:100D4000D1E90001CDE90A0102F0B1F802460B98A1
:100D5000C00F01D02D2007E02068810701D52B208E
:100D600002E0202101EAC000032A099001D0072AED
:100D700005DB03464146204600F07CF90BE1207874
:100D8000800601D5E06900E00620B8F1650F8146D4
:100D900006D0B8F1660F18D0B8F1670F70D131E006
:100DA0000020B9F1110F009001DB112301E009F1DE
:100DB00001030AAA01A90CA8FFF7E4FEDDE90C7003
:100DC000002609F10105834647E001204B460090CB
:100DD0004FF000470AAA01A90CA8FFF7D3FEDDE9EE
:100DE0000DB00C995D46002610B909F101000D18EF
:100DF000B9EB050003D4C0F1FF3609F10105A5EBFD
:100E000009002BE0B9F1010F01DA4FF001090020D0
:100E1000B9F1110F0090484601DD112300E00346AF
:100E20000AAA01A90CA8FFF7ADFEDDE90C704D463A
:100E300000268346207800070AD4AB4500DA5D46D9
:100E400001A8012D04DD411911F8011C302907D03A
:100E50004F4502DA17F1040F04DA012082460FE051
:100E60006D1EEEE7002F02DCED1B3E4403E0781C14
:100E7000A84200DD7D1CB81B00F1010A4FF00047BD
:100E80002078000703D4AA4501DB4FF0FF3A002188
:100E9000B7F1004F0DF143088DF8431024D0022024
:100EA0002B23002F01DA7F422D230A21021EA0F1FD
:100EB000010000DC5FB197FBF1FC97FBF1F201FB55
:100EC0001C7C17460CF1300C08F801CDEEE7A8F1B8
:100ED000010003702188090501D5452100E0652145
:100EE000A0F1010800F8011C09980FA9A1EB08075F
:100EF000FF1D00B10120411901EBEA70A1693844DE
:100F0000081A401EA0612078C00602D42046FFF7D0
:100F100086FB099828B1D4E901219047206A401C3A
:100F200020622078C00622D52046FFF778FB1EE01D
:100F3000002E04DBB34502DD01A8805D00E0302017
:100F4000D4E901219047206A401C2062761CAAF156
:100F500001005FEA000A0AD100F088F8C068016861
:100F6000405CD4E901219047206A401C2062281E81
:100F7000A5F10105DCDC07E0D4E9012118F8010B3B
:100F80009047206A401C2062381EA7F10107F3DC5D
:100F90002046FFF75AFB032011B043E610B5436922
:100FA00013B1AFF3008001E0FFF708FC012010BD92
:100FB000128800F1240182840022C2840122EDE71C
:100FC00011684FF0FF32E9E7007B00F080007047C6
:100FD00070B516460C46054600F040F8036893F8D5
:100FE0000101012806D0FF2C0FD8185D68B101203F
:100FF0002C7070BDD3F807013246214603F2071367
:1010000003442846BDE8704018474FF0FF3070BDDC
:10101000754600F0E7F8AE4605006946534620F0F5
:101020000700854618B020B5FFF712F9BDE820404B
:101030004FF000064FF000074FF000084FF0000B94
:1010400021F00701AC46ACE8C009ACE8C009ACE847
:10105000C009ACE8C0098D467047000010B500F02B
:1010600005F8001D10BD00BFC928000000487047EA
:101070006C1800202DE9F0411F4604460326016844
:10108000072A01F4006004DB08B116A505E016A5E7
:1010900003E008B115A500E015A521F010002060BF
:1010A000A069C01EA0610FB1401EA0612046FFF7DD
:1010B000B6FA4FB1D4E9012138469047206A401C66
:1010C0002062C01C206206E0206AFAE7D4E9012110
:1010D00015F8010B9047761EF8D22046FFF7B5FAB7
:1010E000BDE8F0814E414E006E616E00494E4600F3
:1010F000696E66002DE9F047814616468AB033488E
:1011000078440DC88DE80D0030487844801C03AC4D
:101110000DC884E80D0041F69B300844372190FB50
:10112000F1F290FBF1F5A5F1800501FB12041B3CE7
:1011300002D56442012000E00020DFF890A0804644
:101140000027FA44AAF1BE0A0DE0E00709D03246B2
:10115000684607EB47010AEB810100F00CFB8DE8C4
:10116000070064107F1C002CEFD1184F7F44AC3F68
:1011700018E0E80714D007EB04100DF1180A90E806
:101180000E008AE80E00C068F04201D1981908905C
:10119000324606A903A800F0EEFA03AB83E8070085
:1011A0006D10641C002DE4D132466946B8F1000F81
:1011B00003A802D000F0CBFA01E000F0DCFAC9E9A4
:1011C0000001C9F808200AB0BDE8F0871C2A000019
:1011D00010B50446AFF300802046BDE81040FFF78D
:1011E00022B80000004870474C1800204FF0013C26
:1011F00050F8042B51F8043B9A4221D1A2EB0C0386
:10120000934313EACC1317D150F8042B51F8043B45
:101210009A4215D1A2EB0C03934313EACC130BD1E2
:1012200050F8042B51F8043B9A4209D1A2EB0C036D
:10123000934313EACC13DBD04FF00000704700BF9C
:10124000D01A01BAB1FA81F101F0180122FA01F0C5
:10125000CB40C1F12001DBB2C0B2C01A2CFA01F3BD
:10126000D11A914311EAC311E6D170475FEA400CED
:1012700008BF91F0000F4FEA8C234FEAC12243EAE6
:1012800051514FEA1C5018BF00F5F0404FEA3000B2
:1012900018BF41F000415FEA6C5C00F02980BCF1AE
:1012A000FF3F08BF40F080407047130C06BF120498
:1012B0004FF0100C4FF0000C130E04BF12020CF193
:1012C000080C130F04BF12010CF1040C930F04BFA0
:1012D00092000CF1020CD30F04BF52000CF1010C70
:1012E00011464FF00002A0F11F00A0EB0C00704768
:1012F00011F0004F08BF704731F000413FF4D5AF07
:101300000B0C06BF09044FF0100C4FF0000C0B0E35
:1013100004BF09020CF1080C0B0F04BF09010CF10A
:10132000040C8B0F04BF89000CF1020CCB0F04BF1F
:1013300049000CF1010CCCF12003A0EB0C0022FAC7
:1013400003F302FA0CF241EA030100F101007047D5
:1013500020F07F4C80EA030023F07F47ACEB0703CB
:1013600003F57C5300F0004003F1FF032DE98049B1
:101370004FEA154B09B44FEA144325EA0B4E24EA11
:1013800003480FF2042606EB132749083E785FEA6C
:10139000320203FB0667C7F5000707FB06F64FEAB4
:1013A00054374FEAD64606F1020607FB066CCCF12D
:1013B000005C4FEA1C472CEA074C07FB06F40CFBC9
:1013C00006F504EB15464FEA961634BF00204FF0A1
:1013D00000404FEAD13706FB07FC4FEA1C4C0CFBE0
:1013E0000BF7D21B03FB0CF761EB07010CFB0EF7AD
:1013F000B0EB074072EB17420CFB08F734BFA2EBCF
:101400000742B2EB074261EB17414FEA0C444FEA47
:10141000910706FB07FC4FEA1C4C0CFB0BF7B0EBEB
:10142000C74072EB573203FB0CF734BFA2EBC74245
:10143000B2EBC74261EB57310CFB0EF7B0EBC700C4
:1014400072EB57720CFB08F734BFA2EBC702B2EB8A
:10145000C70261EB5771039F4FEA816141EA921124
:1014600004EBCC044FEAD1374FEA826206FB07FC5B
:1014700042EA90124FEA80604FEA1C4C0CFB0BF7DB
:10148000D21B03FB0CF761EB07010CFB0EF7B0EB73
:10149000074072EB17420CFB08F734BFA2EB074280
:1014A000B2EB074261EB17414FEA8C554FEA9107C7
:1014B00004EB9C2406FB07FC4FEA1C4C0CFB0BF7CF
:1014C000B0EBC74072EB573203FB0CF734BFA2EB13
:1014D000C742B2EBC74261EB57310CFB0EF7B0EBE2
:1014E000C70072EB57720CFB08F734BFA2EBC702C0
:1014F000B2EBC70261EB577115EB4C254FEA8161E6
:1015000041EA92114FEA82624FEAD13742EA9012E1
:1015100006FB07FC44F100044FEA80604FEA1C4CD4
:101520000CFB0BF7D21B03FB0CF761EB07010CFB69
:101530000EF7B0EB074072EB17420CFB08F734BF15
:10154000A2EB0742B2EB074261EB174115EB1C150A
:101550004FEA813141EA92414FEA823242EA9042B7
:101560004FEA80304FEA0C7644F1000448EA034326
:101570004EEA0B484FF0000EB2EB080C71EB03077C
:1015800024BF624639464EEB0E0E4FF0000B00189A
:10159000524149414BEB0B0BB2EB080C71EB0307CB
:1015A0007BF1000B24BF624639464EEB0E0E4FF026
:1015B000000B0018524149414BEB0B0BB2EB080CEE
:1015C00071EB03077BF1000B24BF624639464EEBFB
:1015D0000E0E51EA020718BF46F0010616EB0E7612
:1015E00055F1000254F1000103D5BDE88901BDE8C1
:1015F0000088BDE88901BDE80048B619524141EBB9
:101600000101A3F10103704780807F7E7D7C7B7A9E
:101610007978777676757473727171706F6E6E6D9E
:101620006C6C6B6A6A696868676666656464636344
:1016300062616160605F5F5E5E5D5D5C5C5B5B5ACA
:101640005A59595858575756565555555454535337
:1016500052525251515050504F4F4F4E4E4D4D4D92
:101660004C4C4C4B4B4B4A4A4A49494948484847DD
:10167000474747464646454545444444444343431B
:101680004342424242414141002B26D4770021D0BF
:101690001CB54FEA370703B44FF010004FF01001AC
:1016A0004FF000000FBCBDE810400BF1010BBBF187
:1016B000010F08BF5FEA170722BF12F1010211F103
:1016C00001014FF0004143F1000300F0004043EA04
:1016D00000007047F9D35708DAE746EA064613F1E7
:1016E000400F4FEA16461FDD13F1200FDFBF1643F0
:1016F0000A46002120335B42C8D0C3F1200746EAE6
:10170000064602FA07F74FEA164646EA0706C3F10D
:10171000200722FA03F201FA07F721FA03F14FF04A
:10172000000342EA0702B1E746EA020646EA064635
:101730004FEA164646EA0106BCBF46EA0646360CA4
:101740004FF000034FF000024FF000019EE72DE93B
:10175000C048934630B491E8380007C831EA400CDD
:1017600048BF34EA430C03D5FFF7F2FDFFF78CFFC7
:10177000F0BCBDE800882DE9C048934630B491E83C
:10178000380007C810F0804F08BF13F0804F03D116
:1017900000F005F8FFF778FFF0BCBDE8008820F006
:1017A0007F4780EA030023F07F4C07EB0C03A3F58F
:1017B0007C5300F00040A3F1FE0392F0000F00F014
:1017C000B38095F0000F00F077802DE901494FEAD2
:1017D00011404FEA144621EA004800FB06FC24EAC7
:1017E000064708FB06F607FB08F800FB07F718EBAF
:1017F00006484CEB164C4FEA124B18EB07484FEAE1
:1018000015464CEB174022EA0B4E0BFB06FC25EA73
:1018100006470EFB06F607FB0EFE0BFB07F71EEB5B
:10182000064E4CEB164C4FF000061EEB074E4CEBF1
:10183000174B18EB0B0840F1000018EB0E0B58EBA0
:10184000000840F100008F1A4FF000013CBFC9436F
:10185000661B14BFB5EB040C00213CBFC943F61B4B
:101860004FEA17444EEA8E0E27EA04454FEA1C471A
:1018700004FB07622CEA074C05FB07F70CFB05F697
:1018800004FB0CFC16EB074642EB174216EB0C462A
:1018900042EB1C421BEB060658EB0202414146EAB2
:1018A0009E0601D5BDE80189B619524141EB0101FF
:1018B000A3F10103BDE801894FEA14454FEA11473E
:1018C00024EA054621EA074C05FB07F406FB07F767
:1018D0000CFB06F105FB0CFC11EB074144EB174434
:1018E0004FEA124711EB0C4144EB1C4422EA074C2F
:1018F00005FB07F206FB07F70CFB06F605FB0CFCE5
:1019000016EB074642EB174216EB0C4642EB1C4522
:101910006A1854F1000148BF7047B619524141EBB3
:101920000101A3F10103704795F0000F37D04FEA92
:1019300011424FEA144721EA024624EA074C02FB0F
:1019400007F106FB07F70CFB06F402FB0CFC14EB9B
:10195000074441EB17414FEA154714EB0C4441EBA8
:101960001C4125EA074C02FB07F506FB07F70CFBB9
:1019700006F602FB0CFC16EB074645EB174516EB8B
:101980000C4645EB1C42121951F1000148BF70474B
:10199000B619524141EB0101A3F1010370474FEA2F
:1019A00014454FEA114724EA054621EA074C05FB96
:1019B00007F106FB07F70CFB06F24FF0000605FBEC
:1019C0000CFC12EB074241EB174112EB0C4251EBBE
:1019D0001C4148BF7047921841EB0101A3F101037C
:1019E0007047000008B50121082000F0B9FF4FF44E
:1019F0008070ADF8000010208DF8030003208DF8F2
:101A000002006946044800F06EF84FF48071024805
:101A100000F0FFF808BD0000000C014000BFFEE729
:101A20003EE001F0F1FC01F0B3FC012817D101F018
:101A3000E1FE01201B49087001021B4800F0E7F895
:101A40004FF4FA7001F096FB4FF48071164800F0E5
:101A5000E0F8052001F08EFB14A001F0FBFA11481C
:101A6000007801281CD141F2883001F083FB01F09D
:101A700017FE00200B4908704FF480710A4800F0EF
:101A8000C6F84FF47A7001F075FB4FF48071064888
:101A900000F0BFF8052001F06DFB0BA001F0DAFAB1
:101AA000BFE700002C000020000C01404B204D320D
:101AB00020444F4F52206973204F4E206E6F772184
:101AC0002121210A000000004B204D322020444FEC
:101AD0004F52206973204F4646206E6F7721212197
:101AE000210A000070472DE9F0410246002500263A
:101AF000002000230024002791F803C00CF00F05FC
:101B000091F803C00CF0100CBCF1000F03D091F859
:101B100002C04CEA050591F800C0BCF1000F31D0BD
:101B2000146800202BE04FF0010C0CFA00F3B1F820
:101B300000C00CEA03069E4220D183004FF00F0C38
:101B40000CFA03F7BC4305FA03FC4CEA040491F8D1
:101B500003C0BCF1280F06D14FF0010C0CFA00FCB9
:101B6000C2F814C00AE091F803C0BCF1480F05D1D7
:101B70004FF0010C0CFA00FCC2F810C0401C082801
:101B8000D1D31460B1F800C0BCF1FF0F34DD54684C
:101B900000202EE000F1080C4FF0010808FA0CF3C9
:101BA000B1F800C00CEA03069E4221D183004FF039
:101BB0000F0C0CFA03F7BC4305FA03FC4CEA0404CF
:101BC00091F803C0BCF1280F05D100F1080C08FA08
:101BD0000CF8C2F8148091F803C0BCF1480F07D18B
:101BE00000F1080C4FF0010808FA0CF8C2F8108058
:101BF000401C0828CED35460BDE8F0810246002086
:101C000093680B400BB1012000E000207047416158
:101C100070470161704700BFFEE7000008B5012171
:101C2000102000F09DFE4FF40050ADF80000102091
:101C30008DF8030003208DF8020069460448FFF781
:101C400052FF4FF400510248FFF7E3FF08BD0000C8
:101C50000010014000BFFEE77047000070B5002192
:101C600000230F22C47804B3154C246804F4E06404
:101C7000C4F5E064210AC1F10403CA40447804FABF
:101C800003F184781440214309010E4C0678A155D4
:101C9000047804F01F050124AC4005786D11AD00F7
:101CA00005F1E025C5F8004109E0047804F01F05BE
:101CB0000124AC40044D0678761145F8264070BDED
:101CC0000CED00E000E400E080E100E002490143A7
:101CD000024A1160704700000000FA050CED00E0B8
:101CE00010B500F013F800F0BFFB00F0E7FB00F0C8
:101CF00007FC00F08FFB00F061FB00F09BFC00F0A4
:101D00003FFC00F065FC00F002F810BD7047704722
:101D100006480078012808D105480078FF2804D239
:101D200003480078401C024908707047AA00002050
:101D30009D00002010B500241A480078012830D1F9
:101D4000FEF798FA04461848007820B11648007843
:101D5000401E1549087014480078F8B913480078F7
:101D6000E0B900F0C9FC12481249097850F8210086
:101D7000114908600F4800781049097888420DD051
:101D80000D480068806B401C0B49096888630C484B
:101D90000068401C0A490860FEF78BFA2046FEF7EF
:101DA0006DFA10BDAA0000209D0000209E000020BA
:101DB000E4120020A0000020B80000209F000020B6
:101DC0008400002010B500240B480078012811D1B0
:101DD000FEF750FA04460948007840B908480078F0
:101DE000FF2804D206480078401C054908702046A8
:101DF000FEF744FA10BD0000AA0000209D0000205C
:101E00009E00002010B5002413480078012821D13D
:101E1000FEF730FA044611480078C0B10F48007848
:101E2000401E0E4908700846007860B90C480078DA
:101E300028B92046FEF722FA00F024FC0AE02046EA
:101E4000FEF71CFA06E02046FEF718FA02E02046EC
:101E5000FEF714FA10BD0000AA0000209E0000202A
:101E60009D00002010B50B48007890B900F044FCAC
:101E7000094800780949087009480749097850F865
:101E80002100084908600846006807490860FEF715
:101E9000F8F910BDAA000020A00000209F0000203B
:101EA000E4120020B8000020B000002070470000BD
:101EB0002DE9FE4F06460F4690461C464FF000099E
:101EC000FEF7D8F981461F48007828B14846FEF74A
:101ED000D5F93C20BDE8FE8F1B4850F8240060BBBC
:101EE0000120194941F824004846FEF7C7F90023AC
:101EF00042463946304600F009F9824600200090FB
:101F000001900346024651460290204600F00AFC2A
:101F1000054635B90D48007801280CD100F0B2FB18
:101F200009E0FEF7A7F981460020074941F824009F
:101F30004846FEF7A3F92846CCE74846FEF79EF947
:101F40002820C7E79D000020E4120020AA000020FE
:101F50002DE9F04F85B081468A4693461C46DDE95F
:101F60000F78129D00200390FEF784F90390234818
:101F7000007830B10398FEF781F93C2005B0BDE848
:101F8000F08F1F4850F8240088BB01201C4941F8FD
:101F900024000398FEF772F92A464146384600F0BD
:101FA000D1FC2B465A465146484600F0AFF8049003
:101FB0001198CDE9008002953A4620460E9B04997F
:101FC00000F0B0FB064636B90E48007801280CD167
:101FD00000F058FB09E0FEF74DF903900020084996
:101FE00041F824000398FEF749F93046C6E7FFE7B9
:101FF0000398FEF743F92820C0E700009D00002069
:10200000E4120020AA000020704770472DE9F0413B
:1020100006460F4614464FF000081548007818B1E0
:1020200012202070BDE8F081FEF724F98046FF2ED3
:1020300003D11048006890F832600F4850F82650DD
:102040002DB94046FEF71AF943202070EAE7012D2A
:1020500005D14046FEF712F943202070E2E7EF6415
:102060004046FEF70BF90020207000BFDAE70000C1
:102070009D000020B0000020E41200207047000006
:102080002DE9F04707460D464FF0000A0020286072
:102090006860FEF7EFF88246FF2F03D11948006809
:1020A00090F83270184850F827402CB95046FEF787
:1020B000E5F84320BDE8F087012C04D15046FEF737
:1020C000DDF84320F6E7207C00F0010020B95046FF
:1020D000FEF7D4F84520EDE70026D4F80C90D4F8AC
:1020E00008805046FEF7CAF800E0761C58F8041B3A
:1020F0000029FAD0B0002860A9EB060080006860D3
:102100000020D7E7B0000020E412002070B504469C
:1021100010464FF080750560051F28462C606FF053
:102120000106051F28462E604FF01236051F28466F
:102130002E604FF00336051F28462E604FF0023602
:10214000051F28462E607610051F28462E60051FA5
:10215000284629604FF01136051F28462E604FF0A3
:102160001036051F28462E604FF00936051F2846F9
:102170002E604FF00836051F28462E604FF00736B8
:10218000051F28462E604FF00636051F28462E6094
:102190004FF00536051F28462E604FF00436051F08
:1021A00028462E6070BD00002DE9F04105464FF035
:1021B0000008FEF75FF88046FF2D05D12048006833
:1021C00090F83250012608E01D48006890F832006F
:1021D000A84201D1012600E000261A4850F8254007
:1021E0002CB94046FEF74AF84820BDE8F081012CA2
:1021F00004D14046FEF742F84320F6E794F83470E5
:102200001148C05D94F8351088430F49C8550846F9
:10221000C05D30B994F836100C48007888430B49FB
:10222000087094F8300040F0080084F83000404610
:10223000FEF724F8012E01D100F024FA0020D4E7A3
:10224000B0000020E4120020A2000020A100002025
:102250007047000070B5054600261748007800B1A9
:1022600070BD1648007800B1FAE71DB3FEF702F81A
:1022700006461348006890F834401248005D104943
:10228000096891F8351088430E4908550846005DE5
:1022900040B90B48006890F836100B480078884326
:1022A0000949087006480068C5623046FDF7E6FF38
:1022B00000F0E8F900BFD3E79D0000209E00002059
:1022C000B0000020A2000020A100002070B5002670
:1022D00000F072F8FDF7CEFF064631480068401C5A
:1022E0002F4908603046FDF7C9FF2E4800780128C5
:1022F00053D12D48007820B1012804D0022809D1FB
:1023000003E001250BE0002509E001250120264915
:10231000087004E0012500202349087000BF00BFB9
:1023200005B970BD2148046833E0FDF7A3FF0646F8
:10233000E06A50B3E06A401EE062E06A28BB94F8AD
:10234000300000F0370040B114F8300F00F0C80042
:10235000207001206070303C02E0002084F83100E1
:1023600094F8300000F0080078B93434A0781049AF
:10237000097808430E49087020780E49085C617896
:10238000084314F834190B4A505464693046FDF779
:1023900075FF94F832003F28C7D100BFC1E70000A5
:1023A000C8000020AA000020C0000020BC000020BF
:1023B000A1000020A2000020704700002DE9F0419C
:1023C0005021114800F02CF900250DE0681C86B260
:1023D0000D4800EB051400EB061700202070676025
:1023E0000AA0E060681C85B2042DEFD3064800EB1C
:1023F000051400202070606004A0E06002480449D9
:102400000860BDE8F0810000940E00203F0000004D
:102410008C00002070B5C821114800F001F900239C
:102420000FE0581C85B203EB83000D4901EB8004DB
:1024300005EB850001EB8006002020706660581CCB
:1024400083B2092BEDD303EB8300054901EB800434
:1024500000202070606008460249086070BD0000DE
:10246000CC0D00208800002000200A4908600A499D
:1024700008700A4908700A4908700A4908700A4930
:1024800008600A4908600A4908600A4908600A4960
:1024900008707047C80000209D0000209E000020AA
:1024A000AB000020AA00002084000020AC00002027
:1024B00098000020940000209C00002000210A4A7F
:1024C0001170002004E00021084A1154411CC8B2D8
:1024D0000828F8D30021064A1170064A1170064AEE
:1024E0001160064A11607047A1000020A200002080
:1024F0009F000020A0000020B8000020B0000020B5
:1025000070B54FF47C71194800F08AF84FF480716F
:10251000174800F085F8002413E0601CC5B2C4EB36
:10252000C40000EB4000114901EB8003C5EBC5007E
:1025300000EB400001EB80065E610EA0D864601CD9
:10254000C4B20B2CE9D3C4EBC40000EB4000074934
:1025500001EB80030020586106A0D86400200649E2
:10256000086002480549086070BD0000E4130020BF
:10257000E41200203F000000BC000020B400002056
:1025800000B587B00320002180220A4BCDE901323B
:10259000CDE903104FF6FF703F23074A009007482C
:1025A000FFF7D6FC06AA06A13F20FFF72FFD07B0D4
:1025B00000BD0000E4100020E012002059280008AF
:1025C00075432F4F532D49492049646C6500000025
:1025D00000B587B00320002180220A4BCDE90132EB
:1025E000CDE903104FF6FE703E23074A00900748DE
:1025F000FFF7AEFC06AA06A13E20FFF707FD07B0D5
:1026000000BD0000E40E0020E0100020812800083A
:1026100075432F4F532D49492053746174000000B6
:1026200004E0002200F8012B4A1E91B20029F8D1E3
:10263000704700002DE9F04178211048FFF7F0FFC6
:1026400000240DE0601C86B204EB44000B4901EB52
:10265000C00506EB460001EBC0072F60601C84B28A
:10266000042CEFD304EB4400044901EBC005002027
:102670002860084602490860BDE8F081D4170020B0
:10268000C400002010B50024FDF7F4FD04461348F3
:102690000078F8B912480078E0B900F02DF8114838
:1026A0001149097850F82100104908600E48007857
:1026B0000F49097888420DD00C480068806B401C97
:1026C0000A49096888630B480068401C094908608A
:1026D000FDF7E8FD2046FDF7D1FD10BD9D0000206F
:1026E0009E000020E4120020A0000020B80000207E
:1026F0009F000020840000200649074A1278885C69
:102700000649095C034A515C01EBC001044A11709F
:102710007047000060390008A1000020A2000020DE
:10272000A00000202DE9F84F05460F469046994637
:10273000DDE90AAB00200090FDF79CFD00903F48CA
:102740000468002C74D0183454F8040C3B49086019
:102750000098FDF793FD44F8187CA57600202076BC
:102760006076606144F814BC44F80CAC44F8108CFA
:102770000C9824F8080C24F8069C0020E077E81058
:10278000207705F00700E076217F01208840A077C0
:10279000E17E01208840607700206060E060A060FA
:1027A0002062A0626062E062206325A06063183C42
:1027B000002606E0002104F1500040F82610701CAD
:1027C000C6B2002EF6D02046FFF770FB2046FFF77A
:1027D0001BFCFDF74FFD00901A4840F825401A48B1
:1027E000006860610020A0611748006810B11648B9
:1027F00000688461144804603434A078134909786F
:1028000008431249087020781149085C6178084330
:1028100014F834190E4A50540E480078401C0D49E3
:1028200008700098FDF72AFD0020BDE8F88FFFE74B
:102830000098FDF723FD4220F7E70000B4000020D8
:102840003F000000E4120020BC000020A100002096
:10285000A2000020AB000020002400BF00BFFDF755
:1028600009FD044605480068401C044908602046EC
:10287000FDF704FDFFF7C9FBF1E70000AC00002005
:10288000002400BF02E02820FFF7E4FC194800788C
:102890000028F8D0184800686421B0FBF1F0164910
:1028A00008600846006828B9002014490870FF2015
:1028B000FFF77AFC00BFFDF7DDFC04461048006816
:1028C0001049086000200E4908602046FDF7D6FC3C
:1028D0000C48006808490968B0FBF1F0C0F16400D9
:1028E00006490870FFF7CAFB00F00EF81420FFF746
:1028F000B1FCE0E79C000020940000209000002044
:10290000AC000020980000207CB5002514E069464A
:102910002846FFF7B5FB064666B9094850F825403A
:1029200044B1012C06D0D4E9020100EB81006064BF
:102930000198A064681CC5B23F2DE8D97CBD000099
:10294000E412002002F0010343B102F002032BB1B4
:1029500002E0491E002308C00029FAD17047000098
:1029600029B1064A92690243044B9A6104E0034A82
:1029700092698243014B9A61704700000010024047
:1029800030B500210022002400232D4D6D6805F094
:102990000C0121B1042905D0082923D105E0294DD6
:1029A000056022E0274D05601FE0254D6D6805F4A8
:1029B0007012234D6D6805F48034022505EB9242B8
:1029C0001CB9214D554305600BE01D4D6D6805F4A4
:1029D00000351DB11C4D5543056002E0194D5543AE
:1029E000056002E0174D056000BF00BF144D6D6823
:1029F00005F0F0010909154D6B5C0568DD40456087
:102A00000F4D6D6805F4E061090A104D6B5C456877
:102A1000DD4085600A4D6D6805F46051C90A0B4DB3
:102A20006B5C4568DD40C560054D6D6805F440414F
:102A3000890B074D6B5CC568B5FBF3F5056130BDCF
:102A40000010024000127A0000093D00180000202A
:102A50002800002008B501211020FFF781FF012088
:102A6000ADF8000010208DF8030003208DF802005F
:102A700069461648FFF737F801211448FFF7C7F8F1
:102A80000220ADF8000069461048FFF72CF804203A
:102A9000ADF8000069460D48FFF725F80820ADF8AD
:102AA000000069460948FFF71EF801210748FFF7B3
:102AB000AEF802210548FFF7AAF804210348FFF702
:102AC000A6F808210148FFF7A2F808BD0008014058
:102AD000704710B500F002F810BD00000CB50020E2
:102AE000019000903348006840F48030314908601C
:102AF00000BF3048006800F4003000900198401C8E
:102B00000190009818B90198B0F5A06FF1D129484B
:102B1000006800F4003010B10120009001E00020B6
:102B200000900098012843D12348006840F010002D
:102B3000214908600846006820F003000860084644
:102B4000006840F0020008601A484068194948606F
:102B50000846406848600846406840F48060486025
:102B60000846406820F47C1048600846406840F4FD
:102B7000E81048600846006840F08070086000BFB8
:102B80000C48006800F000700028F9D0094840683F
:102B900020F00300074948600846406840F0020002
:102BA000486000BF0348406800F00C000828F9D1D5
:102BB0000CBD00000010024000200240042808D193
:102BC0004FF0E021096941F004014FF0E02211616A
:102BD00007E04FF0E021096921F004014FF0E02205
:102BE0001161704710B505480078012805D1FFF73D
:102BF0008FF8FFF76BFBFFF79DF810BDAA000020D0
:102C000010B51348006840F00100114908600846FB
:102C10004068104908400E494860084600680E495F
:102C200008400B4908600846006820F480200860CE
:102C30000846406820F4FE0048604FF41F0088609A
:102C4000FFF747FF4FF000600449086010BD000027
:102C5000001002400000FFF8FFFFF6FE08ED00E064
:102C600010B5FFF755F840F225511E4800F059F80D
:102C700010B31C4800F010F9C4B21B48008800F4DF
:102C80000040C8B91848008800F4804060B10A2CA0
:102C900003D000201449088020E01348008840F445
:102CA00000401149088019E00D2C06D10E4800881B
:102CB00040F480400C49088010E00B480088C0F3C5
:102CC0000D000A490C5408480088401C0649088039
:102CD00008460088C72801DD00200880FFF72AF891
:102CE00010BD00000038014080000020CC0300200F
:102CF00021B1828942F40052828104E082894DF63A
:102D0000FF731A408281704702460020B1F5007FB0
:102D100000D100BF13880B400BB1012000E0002060
:102D2000704770B50246002400230025002040F6BD
:102D30006A16B14200D100BFC1F3421501F01F0372
:102D4000012606FA03F3012D02D19689334006E0ED
:102D5000022D02D1168A334001E0968A33400C12CC
:102D6000012606FA04F41688344013B10CB1012090
:102D700000E0002070BDF0B50346002400260025C9
:102D8000002040F66A17B94200D100BF1846C1F3CF
:102D9000421401F01F06012707FA06F5012C01D1A4
:102DA0000C3004E0022C01D1103000E014301AB1D4
:102DB00007682F43076002E00768AF430760F0BD74
:102DC0002DE9F04786B005460E460024A24600BF16
:102DD000A1460027B08900B100BF2F462C8A4CF6CF
:102DE000FF700440F08804432C82AC894EF6F31047
:102DF0000440B08831890843718908430443AC8199
:102E0000AC8A4FF6FF400440B0890443AC8201A86D
:102E1000FFF7B6FD1F48874202D1DDF810A001E0A0
:102E2000DDF80CA0A88900F4004040B10AEBCA000C
:102E300000EB0A1031684900B0FBF1F807E00AEB3B
:102E4000CA0000EB0A1031688900B0FBF1F8642079
:102E5000B8FBF0F004012009642101FB1089A88966
:102E600000F4004040B1322000EBC900B0FBF1F0AB
:102E700000F00700044308E0322000EB0910642151
:102E8000B0FBF1F000F00F0004432C8106B0BDE868
:102E9000F08700000038014001468888C0F3080030
:102EA0007047C1F308028280704700BFFEE7490007
:102EB00050EAC12018BF04204A0D18BF40F001009D
:102EC00040F2FF72B2EB515F08BF40F002000128F0
:102ED00008BF0520704730380A2801D2012070470A
:102EE00000207047014600BF7047000070B50446DF
:102EF00000250948008800F4004058B10020064928
:102F00000988C1F30E01054A505421461046FDF7C9
:102F10002FFB0546284670BD80000020CC03002012
:102F200010B500BF1748008800F040000028F9D015
:102F30002B201449091D08800F2000F01BF900BF49
:102F40001048008800F040000028F9D02B200D49DF
:102F5000091D08800F2000F00DF900BF0948008806
:102F600000F040000028F9D02B200649091D0880F8
:102F70004FF4FA7000F0FEF8142203A103A000F051
:102F800007F810BD003801404F4B000041540000CD
:102F90002DE9F04106460D46144600270020114950
:102FA0000880314610A000F02FFCC5B1BCB10FE085
:102FB0000A2000F0DFF80B48008800F4004038B128
:102FC0002846FFF793FF00B106E00020054908807E
:102FD000601E80B2041EEBD100BF04B90127384641
:102FE000BDE8F0818000002025730D0A000000007C
:102FF00000B599B008A30AA20DA16846FDF7B4F97F
:10300000C82212A16846FFF7C3FF10B9002019B00B
:1030100000BD0120FBE7000038303836000000001A
:103020003139322E3136382E312E31383800000009
:1030300041542B43495053544152543D2254435020
:10304000222C222573222C2573000000434F4E4E64
:103050004543540010B50446204600F0D5FB00203F
:1030600010BD000010B54FF400510248FEF7D1FD2D
:1030700010BD00000010014010B5FFF7C1FD07E0D2
:10308000FFF74EFF00F03EF910B900F0B3F900E091
:10309000F6E700BF14220EA10EA0FFF779FF05E0AE
:1030A000FFF7A6FF10B9FFF7DDFF00E0F8E700BF6C
:1030B000142207A10AA0FFF76BFF142204A10CA0A1
:1030C000FFF766FF0DA0FFF7C5FF002010BD000051
:1030D0004F4B000041542B4349504D55583D300053
:1030E00041542B4349504D4F44453D3100000000B1
:1030F00041542B43495053454E4400004D4F4455D5
:103100004C4532207374657070657220434F4E4E8B
:10311000454E540A0000000010B56FF00400FFF7A0
:103120004DFD104800681049B0FBF1F00F490870E0
:103130000C4800680C49B0FBF1F441F2883044437C
:1031400005200B4908804FF0E020006940F00200A4
:103150004FF0E021086108464461006940F0010039
:10316000086110BD0400002000127A0078000020E1
:103170007A00002070B504460F480078A0B10F48CF
:10318000007888B90E480088844206DB0C48008825
:1031900094FBF0F5284600F01DF80948008894FBE0
:1031A000F0F100FB114084B24FF47A7104FB01F09E
:1031B00000F016F870BD0000AA0000209D0000205D
:1031C0007A00002010B5FEF7FDFD10BD10B5FEF72A
:1031D00019FE10BD10B504462046FFF73BF810BDA0
:1031E0002DE9F047074600264FF0E020D0F8149074
:1031F0001148007807FB00F800BFFFF7E3FF4FF02E
:10320000E020856911E04FF0E0208469AC420CD0E9
:10321000AC4202D2281B064403E0A9EB0400284478
:1032200006442546464500D300E0ECE700BFFFF723
:10323000CDFFBDE8F0870000780000201FE01048B7
:10324000007818B10FA0FDF783F802E011A0FDF798
:103250007FF80A20FFF78EFF1248007818B112A0FD
:10326000FDF776F802E014A0FDF772F8002404E000
:103270004EF66020FFF77EFF641C052CF8DBDEE7CE
:103280000100002053542B4D322B57462B464C0A3D
:103290000000000053542B4D322B57462B47440A55
:1032A000000000000000002053542B4D322B5354DB
:1032B000502B464C0A00000053542B4D322B5354D4
:1032C000502B47440A00000010B54FF4A060FEF7F1
:1032D000FDFCFFF721FF4FF4E13000F0BDFAFEF7EF
:1032E0009DFCFEF77FFBFFF7B5FBFFF7C5FE28B19E
:1032F0000120034908701420FFF73CFF10BD0000B7
:103300000100002000B599B032220CA10CA0FFF7FB
:103310003FFE4FF47A70FFF72DFF0C4803680C480E
:103320000CA102686846FDF71FF84FF4FA720EA16F
:103330006846FFF72DFE002019B000BD4F4B00007E
:1033400041542B43574D4F44453D31003C00002034
:103350003400002041542B43574A41503D222573ED
:10336000222C2225732200005749464920474F54FA
:103370002049500000BF054A128802F04002002A8E
:10338000F9D0C2B2014B1B1D1A80704700380140B2
:1033900010B54FF400410C48FEF730FC90B96420A2
:1033A000FFF7E8FE4FF400410748FEF727FC48B955
:1033B00000BF4FF400410448FEF720FC0028F8D07D
:1033C000012010BD0020FCE7000C014010B5FFF704
:1033D0007BFFFEF785FC0A23044A00210448FEF720
:1033E00067FDFEF73FFD002010BD0000C801002072
:1033F0005D36000810B54FF400510248FEF707FC97
:1034000010BD00000010014010B57048008800F4A5
:103410000040002879D0FFF7EDFF4FF4FA70FFF776
:10342000A9FEFFF71FFE0520FFF7A4FE68480078FD
:10343000432827D1664840784C28FAD16448C078A0
:103440004D28F6D1624800793228F2D1604880795F
:1034500042282DD15E48C079452829D15C48007AA0
:10346000502825D15A48807A4F280CD15848C07A24
:103470004E2808D14FF480715648FEF7CAFB56A07B
:10348000FFF7E8FD76E05248807A4F2872D1504825
:10349000C07A46286ED14E48007B46286AD14FF448
:1034A00080714C48FEF7B3FB51A0FFF7D3FD61E0FC
:1034B0004748807953285DD14548C079542859D16F
:1034C0004348007A502855D14148807A4F2825D169
:1034D0003F48C07A4E2821D14B480078D0B900F03F
:1034E00089F901204849087001023A48FEF78FFB2C
:1034F0004FF4FA70FFF73EFE4FF480713548FEF747
:1035000088FB0520FFF736FE00E05CE03FA0FFF7F8
:10351000A1FD2FE041A0FFF79DFD2BE02C48807A14
:103520004F2827D12A48C07A462823D12848007B33
:1035300046281FD134480078C8B100F0B1F8002007
:10354000314908704FF480712248FEF760FB4FF458
:103550007A70FFF70FFE4FF480711E48FEF759FB9B
:103560000520FFF707FE33A0FFF774FD02E035A04A
:10357000FFF770FD2448007801281CD141F2883003
:10358000FFF7F8FD00F08CF800201F4908704FF499
:1035900080711048FEF73BFB4FF47A70FFF7EAFDAD
:1035A0004FF480710B48FEF734FB0520FFF7E2FD76
:1035B00020A0FFF74FFD0020044908804FF4A061D0
:1035C0000348FDF706F8002010BD00008000002031
:1035D000CC030020000C01404D32204245455020D4
:1035E0006973204F4E206E6F77212121210A000040
:1035F0004D322042454550206973204F4646206E8B
:103600006F77212121210A002C00002053542B4DDB
:10361000322B444F522B4F4E0A000000444F522091
:10362000616C7265616479204F70656E206E6F7792
:103630002000000053542B4D322B444F522B4F4649
:10364000460A0000444F5220616C72656164792023
:10365000434C4F5345206E6F7720000070B50446F1
:10366000002500BFFCF706FE05460623084A002198
:103670000848FEF71DFC0423074A00210748FEF70F
:1036800017FC0A20FEF790FD2846FCF7F7FD70BDF9
:10369000C8020020211A0008C80300203D3200089B
:1036A00010B5002402E000F005F8641CB4F5077FB3
:1036B000F9DB10BD10B501212548FEF7A8FA02215B
:1036C0002348FEF7A4FA04212148FEF7A0FA0821B6
:1036D0001F48FEF79EFA0520FFF74CFD01211C480C
:1036E000FEF795FA02211A48FEF791FA04211848CC
:1036F000FEF78FFA08211648FEF789FA0520FFF732
:1037000039FD01211248FEF782FA02211048FEF726
:1037100080FA04210E48FEF77AFA08210C48FEF7D9
:1037200076FA0520FFF726FD01210948FEF771FA18
:1037300002210748FEF76BFA04210548FEF767FAF5
:1037400008210348FEF763FA0520FFF713FD10BDBB
:103750000008014010B501212548FEF75AFA022160
:103760002348FEF754FA04212148FEF750FA0821B5
:103770001F48FEF74CFA0520FFF7FCFC01211C480E
:10378000FEF745FA02211A48FEF743FA04211848C9
:10379000FEF73DFA08211648FEF739FA0520FFF733
:1037A000E9FC01211248FEF732FA02211048FEF727
:1037B0002EFA04210E48FEF72CFA08210C48FEF7D9
:1037C00026FA0520FFF7D6FC01210948FEF71FFA6B
:1037D00002210748FEF71BFA04210548FEF717FAF5
:1037E00008210348FEF715FA0520FFF7C3FC10BDBA
:1037F0000008014010B5002402E0FFF7ABFF641C95
:10380000B4F5077FF9DB10BD0FB438B505A80090FB
:103810000F48009A0499FCF789FD002000900C489D
:10382000FCF7B8FE85B200240DE000BF4021094836
:10383000FFF76AFA0128F9D10548015D0548FFF74D
:1038400030FB601C84B2AC42EFDB38BC5DF814FB8B
:10385000CC0800200038014010B586B00446012194
:1038600044F20400FFF77CF84FF40070ADF8140048
:1038700003208DF8160018208DF8170005A91E48A2
:10388000FEF731F94FF48060ADF8140004208DF894
:10389000170005A91848FEF726F925208DF8000025
:1038A00003208DF801008DF8020001208DF803003F
:1038B0006846FEF7D3F901940020ADF80800ADF892
:1038C0000A00ADF80C00ADF810000C20ADF80E00A9
:1038D00001A90A48FFF774FA012240F2255107486E
:1038E000FFF749FA01210548FFF702FA00200449D1
:1038F000088006B010BD00000008014000380140FB
:103900008000002010B500290AD00878002807D0D0
:1039100005487844FDF76AFC002801D0002010BD5E
:103920000248784410BD0000FE020000F6020000CC
:1039300010B500290AD00878002807D00548784437
:10394000FDF754FC002801D0002010BD0248784447
:1039500010BD0000EE020000E6020000FDF7E8B92D
:10396000000001000200010003000100020001004C
:103970000400010002000100030001000200010038
:103980000500010002000100030001000200010027
:103990000400010002000100030001000200010018
:1039A0000600010002000100030001000200010006
:1039B00004000100020001000300010002000100F8
:1039C00005000100020001000300010002000100E7
:1039D00004000100020001000300010002000100D8
:1039E00007000100020001000300010002000100C5
:1039F00004000100020001000300010002000100B8
:103A000005000100020001000300010002000100A6
:103A10000400010002000100030001000200010097
:103A20000600010002000100030001000200010085
:103A30000400010002000100030001000200010077
:103A40000500010002000100030001000200010066
:103A50000400010002000100030001000200010057
:103A60000400000800000000000000020001000047
:103A70001000000000000000000000003031323370
:103A80003435363738394142434445464030580092
:103A900030313233343536373839616263646566C4
:103AA0004030780002400000000000A0000000004C
:103AB00005400000000000C8000000000C400000AD
:103AC0000000409C00000000194000000020BCBE27
:103AD0000000000034400000BFC91B8E000000043D
:103AE000B5400000504BCFD06607E2CF0100000088
:103AF0006C4100003E8251AADFEEA73401000000B5
:103B0000D9420000DCB5A0E23A301F97FFFFFFFF6B
:103B1000B4450000FD25A0C8E9A3C14FFFFFFFFF8A
:103B2000FF3F00000000008000000000FF3F000099
:103B30000000008000000000415026535441E6A8D8
:103B4000A1E5BC8F20000000535441E6A8A1E5BCCC
:103B50008F2000004150E6A8A1E5BC8F20000000A6
:103B60006D6F64756C65310068686831313232336D
:103B7000333434003830383600000000313233340A
:103B80003536373800000000575041325F50534BF4
:103B9000000000005750415F574150325F50534B77
:103BA000000000005750415F50534B004F50454EAE
:103BB000000000005745500020554450206D6F64B0
:103BC000756C650054435020736572766572000011
:103BD000777061777061325F616573005443502084
:103BE000636C69656E7400006661737400000000A8
:103BF0003C3D000800000020CC0000002801000827
:103C0000083E0008CC000020E41D0000440100082C
:103C10001C00000043000000F8FFFFFF0C00000044
:103C20000E0000000F0000002E0000001001000038
:103C300043000000F8FFFFFF00404040404040408C
:103C4000404041414141414040404040404040406F
:103C50004040404040404040400502020202020213
:103C60000202020202020202022020202020202062
:103C70002020200202020202020290909090909076
:103C80001010101010101010101010101010101034
:103C900010101010020202020202888888888888A8
:103CA0000808080808080808080808080808080894
:103CB000080808080202020240000000000000009C
:103CC00000000000000000000000000000000000F4
:103CD00000000000000000000000000000000000E4
:103CE00000000000000000000000000000000000D4
:103CF00000000000000000000000000000000000C4
:103D000000000000000000000000000000000000B3
:103D100000000000000000000000000000000000A3
:103D20000000000000000000000000000000000093
:103D30000000000000000000000000000000000083
:103D400000A24A0400000000000000000102030479
:103D50000607080900000000010203040102030431
:103D6000060708090204060800000000743B00086A
:103D7000E83B0008D03B0008683B0008603B0008B7
:103D8000D03B00087C3B0008483B0008543B00083F
:103D9000383B0008C43B0008DC3B0008B83B000887
:103DA000AC3B0008B43B0008A43B0008883B00087B
:103DB000943B00080000000000000000000000002C
:103DC00000000000000000000000000000000000F3
:103DD00000000000000000000000000000000000E3
:103DE00000000000000000000000000000000000D3
:103DF00000000000000000000000000000000000C3
:083E00000000000000000000BA
:04000005080000ED02
:00000001FF
