:020000040800F2
:10000000A81F002035020008411E0008051E000838
:100010003D1E00081D1A00081730000800000000EF
:100020000000000000000000000000003D2C00085F
:10003000E51C000800000000C3020008512D000864
:100040004F0200084F0200084F0200084F0200084C
:100050004F0200084F0200084F0200084F0200083C
:100060004F0200084F0200084F0200084F0200082C
:100070004F0200084F0200084F0200084F0200081C
:100080004F0200084F0200084F0200084F0200080C
:100090004F0200084F0200084F0200084F020008FC
:1000A0004F0200084F0200084F0200084F020008EC
:1000B0004F0200084F0200084F0200084F020008DC
:1000C0004F0200084F0200084F0200084F020008CC
:1000D0004F020008CD2D00084F0200084F02000813
:1000E0004F0200084F0200084F02000800F002F81B
:1000F00000F090F80AA090E8000C82448344AAF132
:100100000107DA4501D100F085F8AFF2090EBAE82F
:100110000F0013F0010F18BFFB1A43F0010318473B
:10012000543A0000743A0000103A24BF78C878C1ED
:10013000FAD8520724BF30C830C144BF04680C60ED
:10014000704700000023002400250026103A28BF35
:1001500078C1FBD8520728BF30C148BF0B60704739
:100160006E2900F02A83702900F09584662903F037
:10017000B783652903F0B483672903F0B18361294C
:10018000AFF3008003681B0A28BF41F08001692992
:1001900000F02A81642900F02781752900F024816C
:1001A0006F2900F02384782900F06184E92900F0A8
:1001B000BD83E42900F0BA83F52900F0B783EF2965
:1001C00000F02084F82900F060840368DB0928BF70
:1001D00041F08001632900F02C83732900F0318302
:1001E000E32900F0E686F32900F0EB860020704753
:1001F0001FB500F03BFF04000020002103F05AFB74
:10020000401C60600020002103F03EFBE0601FBD49
:1002100010B510BD00F0FDFE1146FFF7E9FF03F039
:100220008FF900F0D5FF03B4FFF7F2FF03BC02F033
:100230000FFF00000948804709480047FEE7FEE736
:10024000FEE7FEE7FEE7FEE7FEE7FEE7FEE7FEE786
:1002500004480549054A064B704700006D2D00080B
:10026000ED000008A8190020A81F0020A81B0020EE
:10027000A81B0020EFF3108072B6704780F310883F
:100280007047204C204D25604FF0000484F309880E
:100290001E4C4FF0010525701D4C4FF08055256018
:1002A00062B6FEE730B41A4C4FF08055256030BC82
:1002B000704730B4164C4FF08055256030BC704705
:1002C00000BF72B6EFF3098028B1203880E8F00F44
:1002D00010490968086000B50F4880475DF804EBD5
:1002E0000E480F490A7802700A480E490A680260EF
:1002F000106890E8F00F203080F309884EF0040E6B
:1003000062B6704720ED00E00000FFFFA60000206D
:1003100004ED00E0AC000020392400089B00002020
:100320009C000020B4000020704700001CB50C4663
:10033000064B7B4469460090204600F058FA04467C
:100340000020694600F066FA20461CBDDF0400006C
:100350000FB4044910B503AA029800F077FA10BC54
:100360005DF814FB780000200FB41CB5084B06AAFA
:100370007B4469460090059800F039FA0446002055
:10038000694600F047FA20461CBC5DF814FB0000EB
:10039000A104000070B50C460546012A05D0287856
:1003A000800600D5EA69002302E0012305E05B1C1A
:1003B000934202D2E05C0028F9D1A869E618C01A7D
:1003C000A861286A18442862284600F064F904E00D
:1003D000D5E9012114F8010B9047B442F8D328461F
:1003E00000F06FF970BD00002DE9F04106460024D1
:1003F00010687529314616A510D000F073F9002851
:1004000002DA404213A507E031688A0701D512A538
:1004100002E0490704D511A5012401E000F06BF9C1
:1004200000210A2206F1240709E0B0FBF2FCB0FB30
:10043000F2F302FB1C00303078541846491C0028A7
:10044000F3D123462A463046BDE8F04100F05CB9BE
:10045000000000002D0000002B0000002000000024
:100460002DE9F05F894604464FF0000ADFF874B1C9
:10047000FB44C0F820A02046E1688847002874D0DB
:10048000252806D0D4E901219047206A401C20622B
:10049000F1E700265F462046E168884720280546A8
:1004A00007DB312D05D2781910F8200C08B106436E
:1004B000F1E7B00701D526F00406C4F81CA0002718
:1004C000C4F818A02A2D09D0284602F0BAFD38B386
:1004D00004EB8708303DC8F8185019E059F8041BA0
:1004E000204604EB87029161E1688847012F0546A9
:1004F00018D1E069002820DA26F020061DE0D8F89F
:10050000180000EB800005EB40003038C8F81800F8
:100510002046E1688847054602F093FD0028EED1A9
:10052000012F0AD02E2D08D12046E16888477F1C74
:100530000546022F46F02006C4DBA069002803DA36
:10054000404246F00106A061F00701D026F01006F7
:100550006C2D0BD0682D09D04C2D39D06A2D35D09B
:10056000742D35D07A2D33D016E038E0E1682F466F
:1005700020468847B842054609D16C2F26D04FF453
:100580008060E168064320468847054604E06C2FFA
:100590001AD04FF4807006430DB3A5F1410019281D
:1005A00002D8203546F400664A4629462046266091
:1005B0004E46FFF7D5FD80B101280BD0F61D26F081
:1005C000070000F1080956E74020E4E78020D8E75B
:1005D0000020D6E706F104094DE7284652E7206AD5
:1005E000BDE8F09F7035000030B505460B462A4641
:1005F00013F8014B12F8010B08B1A042F8D01CB15E
:10060000002802D06D1CF1E7284630BD10B5431C10
:1006100002E010F8011B71B18107FAD14FF00132ED
:1006200002C88C1A8C4314EAC211F9D0C01A0A0607
:1006300003D0C01E10BDC01A10BD0A0401D0801E18
:1006400010BD0902FCD0401E10BD4FF0000204296D
:10065000C0F0128010F0030C00F02A82CCF1040CE0
:10066000BCF1020F18BF00F8012BA8BF20F8022B25
:10067000A1EB0C0100F01CBA5FEAC17C24BF00F8BA
:10068000012B00F8012B48BF00F8012B7047704781
:1006900070477047704770B5044685690068C106A9
:1006A00001D5302600E02026C00707D070BDD4E970
:1006B000012130469047206A401C20626D1EF6D50D
:1006C00070BD70B5044685690078C00707D170BD5C
:1006D000D4E9012120209047206A401C20626D1E31
:1006E000F6D570BD09684A0501D540B27047C90505
:1006F000FCD500B2704709684A0501D5C0B2704701
:10070000C905FCD580B270472DE9F0470D469946E2
:100710009246044600F124080168880604D5E06981
:1007200021F01001216000E00120A84201DD471BFB
:1007300000E00027A1697A1902EB0900081AA061FC
:100740002078C00602D42046FFF7A5FF002608E067
:10075000D4E901211AF806009047206A401C761C53
:1007600020624E45F4DB2078C0060AD52046FFF70C
:1007700092FF06E0D4E9012130209047206A401C16
:100780002062381EA7F10107F4DC07E0D4E901215B
:1007900018F805009047206A401C2062281EA5F129
:1007A0000105F3DC2046FFF78CFF2078000602D518
:1007B0000220BDE8F0870120FBE711680268006AAB
:1007C000530501D508700AE0D30501D5088006E07D
:1007D000130603D5C217C1E9000200E0086001203A
:1007E0007047000001694A1C02610878704700B533
:1007F0008FB0CDE901310021059105497944CDE95A
:10080000031011466846FFF72BFE0FB000BD000035
:10081000E5FFFFFF0A6802F8010B0A60704710B598
:10082000436913B1AFF3008001E0FFF7B3FD01208E
:1008300010BD127800F124010A7000224A700122D2
:10084000EDE711684FF0FF32E9E70000074B70B5A4
:100850000D467B44FFF7CBFF0446284600F0B5FB6E
:1008600010B14FF0FF3070BD204670BDCF2C00009E
:100870002DE9FF5F15468A460446DFF8AC80F84450
:100880000027D8E900103E46CDE9001010E03AF804
:1008900016106A4602A800F09CFB411C07D0217884
:1008A000890603D5E269391891420DD80744761CB0
:1008B0002078800602D5E069B84205DDAE42E6DB6D
:1008C0003AF816000028E2D1A069C01BA0612046BA
:1008D000FFF7E1FED8E90010CDE90010002017E095
:1008E0003AF818106A4602A800F073FBB0F1FF3F17
:1008F00081460BD000250DF1080B05E0D4E901215C
:100900001BF8050090476D1C4D45F7D308F1010019
:10091000B0428046E4DB206A384420622046FFF77C
:10092000D0FEBDE8FF9F0000763100002DE9F041C8
:100930008046D21D22F007020025D2E90002F529E7
:1009400015A614D0011E72F1000106DA0023D0EBC7
:10095000030063EB020211A608E0D8F800108B0731
:1009600001D50FA602E0490701D50EA601251146C3
:10097000002408F1240704E000F0BFF830323A55B3
:10098000641C50EA0102F7D12B463246214640460C
:10099000BDE8F041FFF7B8BE000000002D000000E8
:1009A0002B0000002000000030B4002100F12404DE
:1009B00008E002F00705D208303542EA4372DB084E
:1009C0006554491C52EA0305F3D10468002310A2C0
:1009D000250708D504F020040C4304D0C469012382
:1009E0000CA2641EC46130BCFFF78EBE10B5044675
:1009F00021461068FFF77FFE02462046BDE8104002
:100A00000023D1E7D21D22F00701D1E90023CBE773
:100A10000000000030000000F0B40D460188090518
:100A200002D5214C7C4402E01F4C7C440E34002152
:100A300000F1240608E002F00F071209E75D42EA20
:100A400003721B097754491C52EA0307F3D1027859
:100A50000023120704D5702D06D009B102231134EA
:100A60002246F0BCFFF750BE01231034F8E770B502
:100A700004460D4621461068FFF73DFE0246294612
:100A80002046BDE870400023C6E7D21D22F00703D0
:100A9000D3E90023C0E70368126843F02003036032
:100AA0000823C3610023B7E7D82F00004FF00002EE
:100AB00000B5134694469646203922BFA0E80C5054
:100AC000A0E80C50B1F12001BFF4F7AF090728BF2F
:100AD000A0E80C5048BF0CC05DF804EB890028BFAB
:100AE00040F8042B08BF704748BF20F8022B11F0D4
:100AF000804F18BF00F8012B704730B5B0F10A02E3
:100B00004FEA900E71F100034EEA817EB0EB0E00C9
:100B100061EB91014FEA101E4EEA017E10EB0E00D0
:100B200041EB11114FEA102E4EEA016E10EB0E0050
:100B300041EB11214FEA104E4EEA014E10EB0E0030
:100B400041EB1141401841F100014FEAD00040EA69
:100B500041704FEAD10110EB80054FEA810444EA6D
:100B6000907444EB01046D1944EB0404521BA3413F
:100B70004FF0000348BF0A3200D530BD401C41F1A0
:100B8000000130BD70472DE9FF4F0C461E464FF067
:100B9000FF378BB0D2E90001DDF860800A908A4609
:100BA000C1F30A5505B93D46002108464FF0000043
:100BB000BAF1000F00F4400005DA00EB80004FF4BA
:100BC000400101EA50004FEA9059B9F1010F00DDF0
:100BD000B9460A9850EA4A000ED044F61050A5F2E1
:100BE000FF3545432F14B8F1000F1ED07542291E62
:100BF0001EDDC9F100021CE0B8F1010F4FF000004A
:100C000001D0302103E0F24305E02154401CB04202
:100C1000FBDB30460022002121540B99C1F80880EB
:100C2000C1E900200FB0BDE8F08FBD1B6D1CDEE7F1
:100C30004A4600DA694206A800F05CFA06AB93E87F
:100C4000070003AB83E8070050460A9900F00EFB4B
:100C50008DE80700A0F500501F3800900398002D84
:100C600009DD42F21F014A46084403A90390684681
:100C700000F06DFD08E0A0F500504A461F3803A9BA
:100C80000390684600F077FD8DE807000004000C33
:100C900003D04FF0FF30410800E01046B8F1000FDC
:100CA00003D00022009215461EE0751E05D4FFF702
:100CB00024FF303262556D1EF9D5B3460122084338
:100CC00002D000227F1C04E02078302801D10022CD
:100CD0007F1E002A099786D01DE0112D07DAFFF745
:100CE0000CFF303262556D1C50EA0102F5D1084309
:100CF00002D00098C8B10EE00021681E05E0235C18
:100D0000625C63542254401E491C8142F7DBAB46AF
:100D1000A81B401E0990002004F80B000B98099AAC
:100D2000C0F80880C0E9002B7CE711264FF00008CE
:100D300059E72DE9F04F88460446D21D22F00701FD
:100D400091B0D1E90001CDE90A0102F066F902464D
:100D50000B98C00F01D02D2007E02068810701D536
:100D60002B2002E0202101EAC000032A099001D0D3
:100D7000072A05DB03464146204600F07BF90BE1DC
:100D80002078800601D5E06900E00620B8F1650F03
:100D9000814606D0B8F1660F18D0B8F1670F70D150
:100DA00031E00020B9F1110F009001DB112301E0C7
:100DB00009F101030AAA01A90CA8FFF7E4FEDDE985
:100DC0000C70002609F10105834647E001204B46DF
:100DD00000904FF000470AAA01A90CA8FFF7D3FE24
:100DE000DDE90DB00C995D46002610B909F101004E
:100DF0000D18B9EB050003D4C0F1FF3609F1010568
:100E0000A5EB09002BE0B9F1010F01DA4FF0010960
:100E10000020B9F1110F0090484601DD112300E0D8
:100E200003460AAA01A90CA8FFF7ADFEDDE90C7084
:100E30004D4600268346207800070AD4AB4500DAE9
:100E40005D4601A8012D04DD411911F8011C30296E
:100E500007D04F4502DA17F1040F04DA0120824669
:100E60000FE06D1EEEE7002F02DCED1B3E4403E0B9
:100E7000781CA84200DD7D1CB81B00F1010A4FF070
:100E800000472078000703D4AA4501DB4FF0FF3A62
:100E90000021B7F1004F0DF143088DF8431024D025
:100EA00002202B23002F01DA7F422D230A21021E6C
:100EB000A0F1010000DC5FB197FBF1FC97FBF1F2C0
:100EC00001FB1C7C17460CF1300C08F801CDEEE755
:100ED000A8F1010003702188090501D5452100E032
:100EE0006521A0F1010800F8011C09980FA9A1EBE8
:100EF0000807FF1D00B10120411901EBEA70A1694B
:100F00003844081A401EA0612078C00602D420464A
:100F1000FFF7C1FB099828B1D4E901219047206A65
:100F2000401C20622078C00622D52046FFF7B3FB84
:100F30001EE0002E04DBB34502DD01A8805D00E069
:100F40003020D4E901219047206A401C2062761CA1
:100F5000AAF101005FEA000A0AD100F087F8C06830
:100F60000168405CD4E901219047206A401C20625E
:100F7000281EA5F10105DCDC07E0D4E9012118F801
:100F8000010B9047206A401C2062381EA7F1010720
:100F9000F3DC2046FFF795FB032011B043E610B5C4
:100FA000436913B1AFF3008001E0FFF761FC01205A
:100FB00010BD128800F1240182840022C284012223
:100FC000EDE711684FF0FF32E9E7007B00F08000A9
:100FD000704770B516460C46054600F03FF80368AA
:100FE00093F80101012806D0FF2C0FD8185D68B1D5
:100FF00001202C7070BDD3F807013246214603F260
:10100000071303442846BDE8704018474FF0FF30EF
:1010100070BD754600F0E6F8AE46050069465346D9
:1010200020F00700854618B020B5FFF711F9BDE89C
:1010300020404FF000064FF000074FF000084FF03F
:10104000000B21F00701AC46ACE8C009ACE8C009D0
:10105000ACE8C009ACE8C0098D46704710B500F097
:1010600005F8001D10BD00BF4D2800000048704766
:10107000681900202DE9F0411F4604460326016847
:10108000072A01F4006004DB08B116A505E016A5E7
:1010900003E008B115A500E015A521F010002060BF
:1010A000A069C01EA0610FB1401EA0612046FFF7DD
:1010B000F2FA4FB1D4E9012138469047206A401C2A
:1010C0002062C01C206206E0206AFAE7D4E9012110
:1010D00015F8010B9047761EF8D22046FFF7F1FA7B
:1010E000BDE8F0814E414E006E616E00494E4600F3
:1010F000696E66002DE9F047814616468AB033488E
:1011000078440DC88DE80D0030487844801C03AC4D
:101110000DC884E80D0041F69B300844372190FB50
:10112000F1F290FBF1F5A5F1800501FB12041B3CE7
:1011300002D56442012000E00020DFF890A0804644
:101140000027FA44AAF1BE0A0DE0E00709D03246B2
:10115000684607EB47010AEB810100F00CFB8DE8C4
:10116000070064107F1C002CEFD1184F7F44AC3F68
:1011700018E0E80714D007EB04100DF1180A90E806
:101180000E008AE80E00C068F04201D1981908905C
:10119000324606A903A800F0EEFA03AB83E8070085
:1011A0006D10641C002DE4D132466946B8F1000F81
:1011B00003A802D000F0CBFA01E000F0DCFAC9E9A4
:1011C0000001C9F808200AB0BDE8F087A029000096
:1011D00010B50446AFF300802046BDE81040FFF78D
:1011E00022B8000000487047481900204FF0013C29
:1011F00050F8042B51F8043B9A4221D1A2EB0C0386
:10120000934313EACC1317D150F8042B51F8043B45
:101210009A4215D1A2EB0C03934313EACC130BD1E2
:1012200050F8042B51F8043B9A4209D1A2EB0C036D
:10123000934313EACC13DBD04FF00000704700BF9C
:10124000D01A01BAB1FA81F101F0180122FA01F0C5
:10125000CB40C1F12001DBB2C0B2C01A2CFA01F3BD
:10126000D11A914311EAC311E6D170475FEA400CED
:1012700008BF91F0000F4FEA8C234FEAC12243EAE6
:1012800051514FEA1C5018BF00F5F0404FEA3000B2
:1012900018BF41F000415FEA6C5C00F02980BCF1AE
:1012A000FF3F08BF40F080407047130C06BF120498
:1012B0004FF0100C4FF0000C130E04BF12020CF193
:1012C000080C130F04BF12010CF1040C930F04BFA0
:1012D00092000CF1020CD30F04BF52000CF1010C70
:1012E00011464FF00002A0F11F00A0EB0C00704768
:1012F00011F0004F08BF704731F000413FF4D5AF07
:101300000B0C06BF09044FF0100C4FF0000C0B0E35
:1013100004BF09020CF1080C0B0F04BF09010CF10A
:10132000040C8B0F04BF89000CF1020CCB0F04BF1F
:1013300049000CF1010CCCF12003A0EB0C0022FAC7
:1013400003F302FA0CF241EA030100F101007047D5
:1013500020F07F4C80EA030023F07F47ACEB0703CB
:1013600003F57C5300F0004003F1FF032DE98049B1
:101370004FEA154B09B44FEA144325EA0B4E24EA11
:1013800003480FF2042606EB132749083E785FEA6C
:10139000320203FB0667C7F5000707FB06F64FEAB4
:1013A00054374FEAD64606F1020607FB066CCCF12D
:1013B000005C4FEA1C472CEA074C07FB06F40CFBC9
:1013C00006F504EB15464FEA961634BF00204FF0A1
:1013D00000404FEAD13706FB07FC4FEA1C4C0CFBE0
:1013E0000BF7D21B03FB0CF761EB07010CFB0EF7AD
:1013F000B0EB074072EB17420CFB08F734BFA2EBCF
:101400000742B2EB074261EB17414FEA0C444FEA47
:10141000910706FB07FC4FEA1C4C0CFB0BF7B0EBEB
:10142000C74072EB573203FB0CF734BFA2EBC74245
:10143000B2EBC74261EB57310CFB0EF7B0EBC700C4
:1014400072EB57720CFB08F734BFA2EBC702B2EB8A
:10145000C70261EB5771039F4FEA816141EA921124
:1014600004EBCC044FEAD1374FEA826206FB07FC5B
:1014700042EA90124FEA80604FEA1C4C0CFB0BF7DB
:10148000D21B03FB0CF761EB07010CFB0EF7B0EB73
:10149000074072EB17420CFB08F734BFA2EB074280
:1014A000B2EB074261EB17414FEA8C554FEA9107C7
:1014B00004EB9C2406FB07FC4FEA1C4C0CFB0BF7CF
:1014C000B0EBC74072EB573203FB0CF734BFA2EB13
:1014D000C742B2EBC74261EB57310CFB0EF7B0EBE2
:1014E000C70072EB57720CFB08F734BFA2EBC702C0
:1014F000B2EBC70261EB577115EB4C254FEA8161E6
:1015000041EA92114FEA82624FEAD13742EA9012E1
:1015100006FB07FC44F100044FEA80604FEA1C4CD4
:101520000CFB0BF7D21B03FB0CF761EB07010CFB69
:101530000EF7B0EB074072EB17420CFB08F734BF15
:10154000A2EB0742B2EB074261EB174115EB1C150A
:101550004FEA813141EA92414FEA823242EA9042B7
:101560004FEA80304FEA0C7644F1000448EA034326
:101570004EEA0B484FF0000EB2EB080C71EB03077C
:1015800024BF624639464EEB0E0E4FF0000B00189A
:10159000524149414BEB0B0BB2EB080C71EB0307CB
:1015A0007BF1000B24BF624639464EEB0E0E4FF026
:1015B000000B0018524149414BEB0B0BB2EB080CEE
:1015C00071EB03077BF1000B24BF624639464EEBFB
:1015D0000E0E51EA020718BF46F0010616EB0E7612
:1015E00055F1000254F1000103D5BDE88901BDE8C1
:1015F0000088BDE88901BDE80048B619524141EBB9
:101600000101A3F10103704780807F7E7D7C7B7A9E
:101610007978777676757473727171706F6E6E6D9E
:101620006C6C6B6A6A696868676666656464636344
:1016300062616160605F5F5E5E5D5D5C5C5B5B5ACA
:101640005A59595858575756565555555454535337
:1016500052525251515050504F4F4F4E4E4D4D4D92
:101660004C4C4C4B4B4B4A4A4A49494948484847DD
:10167000474747464646454545444444444343431B
:101680004342424242414141002B26D4770021D0BF
:101690001CB54FEA370703B44FF010004FF01001AC
:1016A0004FF000000FBCBDE810400BF1010BBBF187
:1016B000010F08BF5FEA170722BF12F1010211F103
:1016C00001014FF0004143F1000300F0004043EA04
:1016D00000007047F9D35708DAE746EA064613F1E7
:1016E000400F4FEA16461FDD13F1200FDFBF1643F0
:1016F0000A46002120335B42C8D0C3F1200746EAE6
:10170000064602FA07F74FEA164646EA0706C3F10D
:10171000200722FA03F201FA07F721FA03F14FF04A
:10172000000342EA0702B1E746EA020646EA064635
:101730004FEA164646EA0106BCBF46EA0646360CA4
:101740004FF000034FF000024FF000019EE72DE93B
:10175000C048934630B491E8380007C831EA400CDD
:1017600048BF34EA430C03D5FFF7F2FDFFF78CFFC7
:10177000F0BCBDE800882DE9C048934630B491E83C
:10178000380007C810F0804F08BF13F0804F03D116
:1017900000F005F8FFF778FFF0BCBDE8008820F006
:1017A0007F4780EA030023F07F4C07EB0C03A3F58F
:1017B0007C5300F00040A3F1FE0392F0000F00F014
:1017C000B38095F0000F00F077802DE901494FEAD2
:1017D00011404FEA144621EA004800FB06FC24EAC7
:1017E000064708FB06F607FB08F800FB07F718EBAF
:1017F00006484CEB164C4FEA124B18EB07484FEAE1
:1018000015464CEB174022EA0B4E0BFB06FC25EA73
:1018100006470EFB06F607FB0EFE0BFB07F71EEB5B
:10182000064E4CEB164C4FF000061EEB074E4CEBF1
:10183000174B18EB0B0840F1000018EB0E0B58EBA0
:10184000000840F100008F1A4FF000013CBFC9436F
:10185000661B14BFB5EB040C00213CBFC943F61B4B
:101860004FEA17444EEA8E0E27EA04454FEA1C471A
:1018700004FB07622CEA074C05FB07F70CFB05F697
:1018800004FB0CFC16EB074642EB174216EB0C462A
:1018900042EB1C421BEB060658EB0202414146EAB2
:1018A0009E0601D5BDE80189B619524141EB0101FF
:1018B000A3F10103BDE801894FEA14454FEA11473E
:1018C00024EA054621EA074C05FB07F406FB07F767
:1018D0000CFB06F105FB0CFC11EB074144EB174434
:1018E0004FEA124711EB0C4144EB1C4422EA074C2F
:1018F00005FB07F206FB07F70CFB06F605FB0CFCE5
:1019000016EB074642EB174216EB0C4642EB1C4522
:101910006A1854F1000148BF7047B619524141EBB3
:101920000101A3F10103704795F0000F37D04FEA92
:1019300011424FEA144721EA024624EA074C02FB0F
:1019400007F106FB07F70CFB06F402FB0CFC14EB9B
:10195000074441EB17414FEA154714EB0C4441EBA8
:101960001C4125EA074C02FB07F506FB07F70CFBB9
:1019700006F602FB0CFC16EB074645EB174516EB8B
:101980000C4645EB1C42121951F1000148BF70474B
:10199000B619524141EB0101A3F1010370474FEA2F
:1019A00014454FEA114724EA054621EA074C05FB96
:1019B00007F106FB07F70CFB06F24FF0000605FBEC
:1019C0000CFC12EB074241EB174112EB0C4251EBBE
:1019D0001C4148BF7047921841EB0101A3F101037C
:1019E0007047000008B50121082001F0ADF84FF460
:1019F0008070ADF8000010208DF8030003208DF8F2
:101A000002006946044800F06EF94FF48071024804
:101A100000F0F6F908BD0000000C014000BFFEE731
:101A200004E001F0A9FD0A2001F054FCF9E70000F0
:101A300010B500241548006820F070401349086074
:101A40000846006840F00040086004E0601CC4B232
:101A5000012001F075FC0E48006808B1642CF5DB2C
:101A6000642C01DB012010BD002404E0601CC4B222
:101A7000012001F065FC0648006808B9642CF5DB1C
:101A8000642C01DB0120EEE70020ECE700080140B8
:101A90001C01214208B50121042001F055F88020E5
:101AA000ADF8000010208DF8030003208DF802002F
:101AB0006946064800F017F98021044800F0A0F9B3
:101AC00000F068F8FFF7B4FF08BD0000000801400F
:101AD00010B5002404E0601CC4B2012001F030FC09
:101AE0000D48006808B1642CF5DB002404E0601C9C
:101AF000C4B2012001F024FC0748006808B9642C36
:101B0000F5DB282001F01CFC0348006808B1012027
:101B100010BD0020FCE700001C01214270B500242C
:101B2000002506E06006040EFFF7D2FF0443681CA0
:101B3000C5B2082DF6DB204670BD7CB505460E46C5
:101B400000F028F8FFF774FFF8B9002405E0FFF76C
:101B5000E5FF0DF80400601CC4B2052CF7DB9DF80E
:101B600000009DF8011008449DF8021008449DF8FB
:101B7000031008449DF80410884208D19DF8000025
:101B800030709DF80200287001E001207CBD00202B
:101B9000FCE7000010B50C48006820F070400A49CE
:101BA00008600846006840F040500860002007497F
:101BB0000860142001F08EFB01200549C1F89C014A
:101BC0001E2001F0BDFB10BD000801409C01214218
:101BD0000000214210B500241548006820F4704030
:101BE000134908600846006840F40040086004E0BB
:101BF000601CC4B2012001F0A3FB0E48006808B1CC
:101C0000C82CF5DBC82C01DB012010BD002404E04A
:101C1000601CC4B2012001F093FB0648006808B9BB
:101C2000F02CF5DBF02C01DB0120EEE70020ECE7E7
:101C3000040801402C01214208B50121042000F0D4
:101C400083FF4FF40060ADF8000010208DF8030012
:101C500003208DF802006946064800F044F84FF46E
:101C60000061044800F0CCF800F006F8FFF7B2FF7E
:101C700008BD00000008014010B5002416480068A7
:101C800020F47040144908600846006840F4405051
:101C900008600120114908602D2001F051FB00204F
:101CA0000F49C1F8AC014FF4FA7001F049FB012073
:101CB0000A4908600F2001F043FB0748006820F440
:101CC0007040054908600846006840F4004008601C
:101CD00000BF002CFDD110BD04080140AC01214221
:101CE0000000214270472DE9F04102460025002600
:101CF000002000230024002791F803C00CF00F05FA
:101D000091F803C00CF0100CBCF1000F03D091F857
:101D100002C04CEA050591F800C0BCF1000F31D0BB
:101D2000146800202BE04FF0010C0CFA00F3B1F81E
:101D300000C00CEA03069E4220D183004FF00F0C36
:101D40000CFA03F7BC4305FA03FC4CEA040491F8CF
:101D500003C0BCF1280F06D14FF0010C0CFA00FCB7
:101D6000C2F814C00AE091F803C0BCF1480F05D1D5
:101D70004FF0010C0CFA00FCC2F810C0401C0828FF
:101D8000D1D31460B1F800C0BCF1FF0F34DD54684A
:101D900000202EE000F1080C4FF0010808FA0CF3C7
:101DA000B1F800C00CEA03069E4221D183004FF037
:101DB0000F0C0CFA03F7BC4305FA03FC4CEA0404CD
:101DC00091F803C0BCF1280F05D100F1080C08FA06
:101DD0000CF8C2F8148091F803C0BCF1480F07D189
:101DE00000F1080C4FF0010808FA0CF8C2F8108056
:101DF000401C0828CED35460BDE8F0814161704793
:101E00000161704700BFFEE708B50121082000F01E
:101E10009BFE8020ADF8000010208DF80300032009
:101E20008DF8020069460448FFF75DFF80210248F3
:101E3000FFF7E6FF08BD0000000C014000BFFEE711
:101E40007047000070B5002100230F22C47804B34E
:101E5000154C246804F4E064C4F5E064210AC1F17F
:101E60000403CA40447804FA03F1847814402143FF
:101E700009010E4C0678A155047804F01F050124D1
:101E8000AC4005786D11AD0005F1E025C5F80041C5
:101E900009E0047804F01F050124AC40044D0678E5
:101EA000761145F8264070BD0CED00E000E400E03E
:101EB00080E100E002490143024A116070470000DE
:101EC0000000FA050CED00E010B500F013F800F08A
:101ED000BFFB00F0E7FB00F007FC00F08FFB00F019
:101EE00061FB00F09BFC00F03FFC00F065FC00F0A3
:101EF00002F810BD7047704706480078012808D1E5
:101F000005480078FF2804D203480078401C0249A5
:101F100008707047A60000209900002010B500242A
:101F20001A480078012830D1FEF7A4F90446184871
:101F3000007820B116480078401E154908701448F2
:101F40000078F8B913480078E0B900F0C9FC1248ED
:101F50001249097850F82100114908600F480078AB
:101F60001049097888420DD00D480068806B401CEC
:101F70000B49096888630C480068401C0A490860DE
:101F8000FEF797F92046FEF779F910BDA60000206C
:101F9000990000209A000020E01300209C000020FF
:101FA000B40000209B0000208000002010B5002419
:101FB0000B480078012811D1FEF75CF90446094866
:101FC000007840B908480078FF2804D20648007815
:101FD000401C054908702046FEF750F910BD00006E
:101FE000A6000020990000209A00002010B50024CF
:101FF00013480078012821D1FEF73CF90446114826
:102000000078C0B10F480078401E0E49087008469D
:10201000007860B90C48007828B92046FEF72EF900
:1020200000F024FC0AE02046FEF728F906E02046EE
:10203000FEF724F902E02046FEF720F910BD00006B
:10204000A60000209A0000209900002010B50B483F
:10205000007890B900F044FC0948007809490870FC
:1020600009480749097850F82100084908600846DE
:10207000006807490860FEF704F910BDA6000020BB
:102080009C0000209B000020E0130020B4000020F2
:10209000AC000020704700002DE9FE4F06460F46B9
:1020A00090461C464FF00009FEF7E4F881461F48B1
:1020B000007828B14846FEF7E1F83C20BDE8FE8FE5
:1020C0001B4850F8240060BB0120194941F8240046
:1020D0004846FEF7D3F8002342463946304600F022
:1020E00009F98246002000900190034602465146BD
:1020F0000290204600F00AFC054635B90D480078EC
:1021000001280CD100F0B2FB09E0FEF7B3F88146DC
:102110000020074941F824004846FEF7AFF828465A
:10212000CCE74846FEF7AAF82820C7E79900002028
:10213000E0130020A60000202DE9F04F85B0814675
:102140008A4693461C46DDE90F78129D00200390D5
:10215000FEF790F803902348007830B10398FEF71B
:102160008DF83C2005B0BDE8F08F1F4850F82400E2
:1021700088BB01201C4941F824000398FEF77EF833
:102180002A464146384600F0D1FC2B465A46514675
:10219000484600F0AFF804901198CDE90080029510
:1021A0003A4620460E9B049900F0B0FB064636B92D
:1021B0000E48007801280CD100F058FB09E0FEF72A
:1021C00059F803900020084941F824000398FEF7CD
:1021D00055F83046C6E7FFE70398FEF74FF828208A
:1021E000C0E7000099000020E0130020A6000020B6
:1021F000704770472DE9F04106460F4614464FF0F0
:1022000000081548007818B112202070BDE8F08150
:10221000FEF730F88046FF2E03D11048006890F892
:1022200032600F4850F826502DB94046FEF726F888
:1022300043202070EAE7012D05D14046FEF71EF845
:1022400043202070E2E7EF644046FEF717F80020D5
:10225000207000BFDAE7000099000020AC000020E9
:10226000E0130020704700002DE9F04707460D46B7
:102270004FF0000A002028606860FDF7FBFF8246EF
:10228000FF2F03D11948006890F83270184850F8B1
:1022900027402CB95046FDF7F1FF4320BDE8F087F9
:1022A000012C04D15046FDF7E9FF4320F6E7207CDE
:1022B00000F0010020B95046FDF7E0FF4520EDE7B2
:1022C0000026D4F80C90D4F808805046FDF7D6FFCD
:1022D00000E0761C58F8041B0029FAD0B0002860F2
:1022E000A9EB0600800068600020D7E7AC00002062
:1022F000E013002070B5044610464FF0807505606D
:10230000051F28462C606FF00106051F28462E6029
:102310004FF01236051F28462E604FF00336051F7A
:1023200028462E604FF00236051F28462E60761094
:10233000051F28462E60051F284629604FF01136DC
:10234000051F28462E604FF01036051F28462E60C8
:102350004FF00936051F28462E604FF00836051F3E
:1023600028462E604FF00736051F28462E604FF096
:102370000636051F28462E604FF00536051F2846F5
:102380002E604FF00436051F28462E6070BD0000F9
:102390002DE9F04105464FF00008FDF76BFF804640
:1023A000FF2D05D12048006890F83250012608E042
:1023B0001D48006890F83200A84201D1012600E0D3
:1023C00000261A4850F825402CB94046FDF756FF24
:1023D0004820BDE8F081012C04D14046FDF74EFFB6
:1023E0004320F6E794F834701148C05D94F8351036
:1023F00088430F49C8550846C05D30B994F8361077
:102400000C48007888430B49087094F8300040F07D
:10241000080084F830004046FDF730FF012E01D15E
:1024200000F024FA0020D4E7AC000020E0130020E4
:102430009E0000209D0000207047000070B50546FA
:1024400000261748007800B170BD1648007800B12A
:10245000FAE71DB3FDF70EFF06461348006890F833
:1024600034401248005D1049096891F835108843DE
:102470000E4908550846005D40B90B48006890F8C1
:1024800036100B48007888430949087006480068F0
:10249000C5623046FDF7F2FE00F0E8F900BFD3E771
:1024A000990000209A000020AC0000209E0000202F
:1024B0009D00002070B5002600F072F8FDF7DAFEEE
:1024C000064631480068401C2F4908603046FDF739
:1024D000D5FE2E480078012853D12D48007820B130
:1024E000012804D0022809D103E001250BE00025D2
:1024F00009E0012501202649087004E0012500209B
:102500002349087000BF00BF05B970BD21480468A9
:1025100033E0FDF7AFFE0646E06A50B3E06A401EC6
:10252000E062E06A28BB94F8300000F0370040B168
:1025300014F8300F00F0C800207001206070303CAB
:1025400002E0002084F8310094F8300000F0080028
:1025500078B93434A0781049097808430E490870D6
:1025600020780E49085C6178084314F834190B4A46
:10257000505464693046FDF781FE94F832003F28DC
:10258000C7D100BFC1E70000C4000020A6000020A2
:10259000BC000020B80000209D0000209E0000200C
:1025A000704700002DE9F0415021114800F02CF94E
:1025B00000250DE0681C86B20D4800EB051400EB09
:1025C00006170020207067600AA0E060681C85B2D2
:1025D000042DEFD3064800EB051400202070606046
:1025E00004A0E060024804490860BDE8F0810000F2
:1025F000900F00203F0000008800002070B5C82127
:10260000114800F001F900230FE0581C85B203EBDC
:1026100083000D4901EB800405EB850001EB80068A
:10262000002020706660581C83B2092BEDD303EBA9
:102630008300054901EB800400202070606008469B
:102640000249086070BD0000C80E00208400002010
:1026500000200A4908600A4908700A4908700A49B6
:1026600008700A4908700A4908600A4908600A495E
:1026700008600A4908600A4908707047C4000020D1
:10268000990000209A000020A7000020A60000204A
:1026900080000020A800002094000020900000206E
:1026A0009800002000210A4A1170002004E0002157
:1026B000084A1154411CC8B20828F8D30021064A20
:1026C0001170064A1170064A1160064A116070477F
:1026D0009D0000209E0000209B0000209C00002008
:1026E000B4000020AC00002070B54FF47C71194894
:1026F00000F08AF84FF48071174800F085F8002444
:1027000013E0601CC5B2C4EBC40000EB40001149EB
:1027100001EB8003C5EBC50000EB400001EB800638
:102720005E610EA0D864601CC4B20B2CE9D3C4EB6C
:10273000C40000EB4000074901EB80030020586112
:1027400006A0D864002006490860024805490860D0
:1027500070BD0000E0140020E01300203F000000E6
:10276000B8000020B000002000B587B00320002191
:1027700080220A4BCDE90132CDE903104FF6FF70FC
:102780003F23074A00900748FFF7D6FC06AA06A198
:102790003F20FFF72FFD07B000BD0000E011002033
:1027A000DC130020412A000875432F4F532D49495F
:1027B0002049646C6500000000B587B0032000214B
:1027C00080220A4BCDE90132CDE903104FF6FE70AD
:1027D0003E23074A00900748FFF7AEFC06AA06A171
:1027E0003E20FFF707FD07B000BD0000E00F00200E
:1027F000DC110020692A000875432F4F532D4949E9
:10280000205374617400000004E0002200F8012BE2
:102810004A1E91B20029F8D1704700002DE9F0411D
:1028200078211048FFF7F0FF00240DE0601C86B20D
:1028300004EB44000B4901EBC00506EB460001EB3D
:10284000C0072F60601C84B2042CEFD304EB44005B
:10285000044901EBC00500202860084602490860D1
:10286000BDE8F081D0180020C000002010B5002481
:10287000FDF700FD044613480078F8B912480078C7
:10288000E0B900F02DF811481149097850F82100FD
:10289000104908600E4800780F49097888420DD029
:1028A0000C480068806B401C0A49096888630B4823
:1028B0000068401C09490860FDF7F4FC2046FDF75C
:1028C000DDFC10BD990000209A000020E0130020DC
:1028D0009C000020B40000209B000020800000200D
:1028E0000649074A1278885C0649095C034A515C2C
:1028F00001EBC001044A117070470000E438000881
:102900009D0000209E0000209C0000202DE9F84F33
:1029100005460F4690469946DDE90AAB0020009037
:10292000FDF7A8FC00903F480468002C74D01834D0
:1029300054F8040C3B4908600098FDF79FFC44F8EC
:10294000187CA576002020766076606144F814BC7F
:1029500044F80CAC44F8108C0C9824F8080C24F8BB
:10296000069C0020E077E810207705F00700E0766D
:10297000217F01208840A077E17E01208840607798
:1029800000206060E060A0602062A0626062E0629F
:10299000206325A06063183C002606E0002104F1B6
:1029A000500040F82610701CC6B2002EF6D020460B
:1029B000FFF770FB2046FFF71BFCFDF75BFC009068
:1029C0001A4840F825401A48006860610020A0615C
:1029D0001748006810B11648006884611448046004
:1029E0003434A078134909780843124908702078D4
:1029F0001149085C6178084314F834190E4A5054A0
:102A00000E480078401C0D4908700098FDF736FC10
:102A10000020BDE8F88FFFE70098FDF72FFC42206B
:102A2000F7E70000B00000203F000000E0130020A6
:102A3000B80000209D0000209E000020A70000207C
:102A4000002400BF00BFFDF715FC044605480068E0
:102A5000401C044908602046FDF710FCFFF7C9FB45
:102A6000F1E70000A8000020002400BF02E02820B9
:102A7000FFF7E4FC194800780028F8D018480068EF
:102A80006421B0FBF1F0164908600846006828B9D7
:102A9000002014490870FF20FFF77AFC00BFFDF703
:102AA000E9FB0446104800681049086000200E4900
:102AB00008602046FDF7E2FB0C48006808490968F9
:102AC000B0FBF1F0C0F1640006490870FFF7CAFBE3
:102AD00000F00EF81420FFF7B1FCE0E798000020AA
:102AE000900000208C000020A8000020940000200E
:102AF0007CB5002514E069462846FFF7B5FB06467D
:102B000066B9094850F8254044B1012C06D0D4E9F3
:102B1000020100EB810060640198A064681CC5B2EA
:102B20003F2DE8D97CBD0000E013002002F0010336
:102B300043B102F002032BB102E0491E002308C09A
:102B40000029FAD17047000029B1064A9269024370
:102B5000044B9A6104E0034A92698243014B9A61F3
:102B6000704700000010024030B500210022002410
:102B700000232D4D6D6805F00C0121B1042905D00D
:102B8000082923D105E0294D056022E0274D056085
:102B90001FE0254D6D6805F47012234D6D6805F436
:102BA0008034022505EB92421CB9214D5543056046
:102BB0000BE01D4D6D6805F400351DB11C4D5543EE
:102BC000056002E0194D5543056002E0174D0560B0
:102BD00000BF00BF144D6D6805F0F0010909154DE7
:102BE0006B5C0568DD4045600F4D6D6805F4E06184
:102BF000090A104D6B5C4568DD4085600A4D6D68C3
:102C000005F46051C90A0B4D6B5C4568DD40C56039
:102C1000054D6D6805F44041890B074D6B5CC56837
:102C2000B5FBF3F5056130BD0010024000127A00DB
:102C300000093D001800002028000020704710B552
:102C400000F002F810BD00000CB5002001900090CB
:102C50003348006840F480303149086000BF304894
:102C6000006800F4003000900198401C019000982A
:102C700018B90198B0F5A06FF1D12948006800F4A7
:102C8000003010B10120009001E000200090009879
:102C9000012843D12348006840F010002149086012
:102CA0000846006820F0030008600846006840F00D
:102CB000020008601A4840681949486008464068A0
:102CC00048600846406840F48060486008464068B4
:102CD00020F47C1048600846406840F4E8104860E2
:102CE0000846006840F08070086000BF0C4800682B
:102CF00000F000700028F9D00948406820F0030077
:102D0000074948600846406840F00200486000BF3C
:102D10000348406800F00C000828F9D10CBD000001
:102D20000010024000200240042808D14FF0E021AA
:102D3000096941F004014FF0E022116107E04FF012
:102D4000E021096921F004014FF0E0221161704790
:102D500010B505480078012805D1FFF7CDF8FFF739
:102D6000A9FBFFF7DBF810BDA600002010B5134843
:102D7000006840F0010011490860084640681049A9
:102D800008400E494860084600680E4908400B4953
:102D900008600846006820F4802008600846406803
:102DA00020F4FE0048604FF41F008860FFF747FFE3
:102DB0004FF000600449086010BD000000100240A0
:102DC0000000FFF8FFFFF6FE08ED00E010B5FFF78A
:102DD00093F840F225511E4800F059F810B31C48F2
:102DE00000F010F9C4B21B48008800F40040C8B9D4
:102DF0001848008800F4804060B10A2C03D00020FD
:102E00001449088020E01348008840F4004011492C
:102E1000088019E00D2C06D10E48008840F480404F
:102E20000C49088010E00B480088C0F30D000A49E7
:102E30000C5408480088401C064908800846008851
:102E4000C72801DD00200880FFF768F810BD0000EA
:102E5000003801407C000020C804002021B1828994
:102E600042F40052828104E082894DF6FF731A40D9
:102E70008281704702460020B1F5007F00D100BF7B
:102E800013880B400BB1012000E00020704770B5A3
:102E90000246002400230025002040F66A16B142B5
:102EA00000D100BFC1F3421501F01F03012606FA4D
:102EB00003F3012D02D19689334006E0022D02D1A1
:102EC000168A334001E0968A33400C12012606FA36
:102ED00004F41688344013B10CB1012000E0002046
:102EE00070BDF0B50346002400260025002040F602
:102EF0006A17B94200D100BF1846C1F3421401F06D
:102F00001F06012707FA06F5012C01D10C3004E059
:102F1000022C01D1103000E014301AB107682F43A1
:102F2000076002E00768AF430760F0BD2DE9F04796
:102F300086B005460E460024A24600BFA1460027E3
:102F4000B08900B100BF2F462C8A4CF6FF700440B8
:102F5000F08804432C82AC894EF6F3100440B0880C
:102F600031890843718908430443AC81AC8A4FF628
:102F7000FF400440B0890443AC8201A8FFF7F4FD90
:102F80001F48874202D1DDF810A001E0DDF80CA057
:102F9000A88900F4004040B10AEBCA0000EB0A1017
:102FA00031684900B0FBF1F807E00AEBCA0000EB1A
:102FB0000A1031688900B0FBF1F86420B8FBF0F02A
:102FC00004012009642101FB1089A88900F4004054
:102FD00040B1322000EBC900B0FBF1F000F0070077
:102FE000044308E0322000EB09106421B0FBF1F04B
:102FF00000F00F0004432C8106B0BDE8F08700000C
:103000000038014001468888C0F308007047C1F3CA
:1030100008028280704700BFFEE7490050EAC120E5
:1030200018BF04204A0D18BF40F0010040F2FF72A3
:10303000B2EB515F08BF40F00200012808BF052035
:10304000704730380A2801D20120704700207047AD
:10305000014600BF7047000070B5044600250948CE
:10306000008800F4004058B1002006490988C1F3E7
:103070000E01054A505421461046FDF7B5FA0546A3
:10308000284670BD7C000020C804002010B500BF99
:103090001748008800F040000028F9D02B20144980
:1030A000091D08800F2000F015F900BF10480088A6
:1030B00000F040000028F9D02B200D49091D0880A0
:1030C0000F2000F007F900BF0948008800F0400019
:1030D0000028F9D02B200649091D08804FF4FA700A
:1030E00000F0F8F8142203A103A000F007F810BDC7
:1030F000003801404F4B0000415400002DE9F041E1
:1031000006460D4614460027002011490880314626
:1031100010A000F03BFBC5B1BCB10FE00A2000F0ED
:10312000D9F80B48008800F4004038B12846FFF772
:1031300093FF00B106E0002005490880601E80B2C0
:10314000041EEBD100BF04B901273846BDE8F08169
:103150007C00002025730D0A0000000000B599B026
:1031600008A30AA20DA16846FDF7FEF8C82212A125
:103170006846FFF7C3FF10B9002019B000BD012059
:10318000FBE7000038303836000000003139322EBD
:103190003136382E312E31303900000041542B4366
:1031A000495053544152543D22544350222C22251D
:1031B00073222C2573000000434F4E4E45435400AC
:1031C00010B50446204600F0E1FA002010BD0000D2
:1031D00010B580210148FEF713FE10BD000C014020
:1031E00010B5FFF7C3FD07E0FFF750FF00F062F9ED
:1031F00010B900F0B9F900E0F6E700BF14220EA103
:103200000EA0FFF77BFF05E0FFF7A8FF10B9FFF75F
:10321000DFFF00E0F8E700BF142207A10AA0FFF7D4
:103220006DFF142204A10CA0FFF768FF0DA0FFF7AB
:10323000C7FF002010BD00004F4B000041542B433E
:1032400049504D55583D300041542B4349504D4F46
:1032500044453D310000000041542B434950534543
:103260004E4400004D4F44554C453120434F4E4E87
:10327000454E540A0000000010B56FF00400FFF73F
:1032800053FD104800681049B0FBF1F00F49087079
:103290000C4800680C49B0FBF1F441F2883044431B
:1032A00005200B4908804FF0E020006940F0020043
:1032B0004FF0E021086108464461006940F00100D8
:1032C000086110BD0400002000127A007400002084
:1032D0007600002070B504460F480078A0B10F4872
:1032E000007888B90E480088844206DB0C480088C4
:1032F00094FBF0F5284600F01DF80948008894FB7F
:10330000F0F100FB114084B24FF47A7104FB01F03C
:1033100000F016F870BD0000A60000209900002003
:103320007600002010B5FEF741FE10BD10B5FEF787
:103330005DFE10BD10B504462046FFF77FF810BDB6
:103340002DE9F047074600264FF0E020D0F8149012
:103350001148007807FB00F800BFFFF7E3FF4FF0CC
:10336000E020856911E04FF0E0208469AC420CD088
:10337000AC4202D2281B064403E0A9EB0400284417
:1033800006442546464500D300E0ECE700BFFFF7C2
:10339000CDFFBDE8F08700007400002027E014484E
:1033A000007818B113A0FCF7D3FF02E015A0FCF7DA
:1033B000CFFF1420FFF78EFF1648007818B116A033
:1033C000FCF7C6FF02E018A0FCF7C2FF1420FFF7CD
:1033D00081FF1948007818B118A0FCF7B9FF02E086
:1033E0001AA0FCF7B5FF4EF66020FFF773FFD6E793
:1033F0000000002053542B4D312B544D2B464C0ACA
:103400000000000053542B4D312B544D2B47440AE0
:10341000000000000100002053542B4D312B484D7B
:103420002B464C0A0000000053542B4D312B484DC5
:103430002B47440A000000000200002053542B4D8B
:10344000312B57462B464C0A0000000053542B4D9D
:10345000312B57462B47440A0000000010B54FF4AB
:10346000A060FEF727FDFFF707FF4FF4E13000F003
:10347000B5F9FEF7C9FCFEF7B5FAFEF7DDFB10B1B2
:103480001420FFF727FFFEF705FB28B101200749AD
:1034900008701420FFF71EFFFFF7A2FE28B10120DD
:1034A000034908701420FFF715FF10BD010000202C
:1034B0000200002000B599B032220CA10CA0FFF749
:1034C0001DFE4FF47A70FFF705FF0C4803680C48A7
:1034D0000CA102686846FCF747FF4FF4FA720EA190
:1034E0006846FFF70BFE002019B000BD4F4B0000EF
:1034F00041542B43574D4F44453D31003800002087
:103500003000002041542B43574A41503D2225733F
:10351000222C2225732200005749464920474F5448
:103520002049500000BF054A128802F04002002ADC
:10353000F9D0C2B2014B1B1D1A8070470038014000
:1035400010B5FFF78BFFFEF7BFFC0A23044A0021EA
:103550000448FEF7A1FDFEF779FD002010BD000034
:10356000C4010020D536000810B580210148FEF7BF
:1035700045FC10BD000C014010B53E48008800F429
:103580000040002874D03C480078432868D13A486D
:1035900040784C2864D13848C0784D2860D13648EE
:1035A000007931285CD1344880794C2827D13248C1
:1035B000C079452823D13048007A44281FD12E48AD
:1035C000807A4F2809D12C48C07A4E2805D1FFF7C0
:1035D000CBFF2AA0FFF7F4FD42E02748807A4F286E
:1035E0003ED12548C07A46283AD12348007B462858
:1035F00036D1FFF7EDFD26A0FFF7E2FD30E01E48D3
:10360000807942282CD11C48C079452828D11A48F5
:10361000007A502824D11848807A4F280CD11648B7
:10362000C07A4E2808D14FF480711E48FEF7E6FBA1
:103630001DA0FFF7C5FD13E00F48807A4F280FD17A
:103640000D48C07A46280BD10B48007B462807D18D
:103650004FF480711348FEF7D3FB18A0FFF7B0FDBD
:103660000020044908804FF4A0610348FCF7EDFFF7
:10367000002010BD7C000020C80400204C454420E0
:103680006973204F4E206E6F77212121210A00009F
:103690004C4544206973204F4646206E6F772121A8
:1036A00021210A00000C0140424545502069732049
:1036B0004F4E206E6F77212121210A00424545504F
:1036C000206973204F4646206E6F77212121210A01
:1036D0000000000070B50446002500BFFCF7CAFDDD
:1036E000054606230B4A00210B48FEF7D5FC0523AF
:1036F0000A4A00210A48FEF7CFFC0423094A0021A8
:103700000948FEF7C9FC0A20FEF742FE2846FCF7EE
:10371000B5FD70BDC4020020211A0008C4030020BA
:103720002D370008C40400209D3300081CB54FF459
:10373000FA70FFF7CFFD17E0694601A8FEF7FDF923
:103740009DF8001009A0FCF703FEC820FFF7C2FD9A
:103750009DF8040000EB8000410008A0FCF7F8FD94
:1037600041F28830FFF7B6FDE6E7000044542B4DE8
:10377000312B484D2B25640A0000000044542B4D8A
:10378000312B544D2B25640A000000000FB438B5CE
:1037900005A800900F48009A0499FCF7C7FD002087
:1037A00000900C48FCF732FF85B200240DE000BF0A
:1037B00040210948FFF75EFB0128F9D10548015D6A
:1037C0000548FFF724FC601C84B2AC42EFDB38BC38
:1037D0005DF814FBC80900200038014010B586B020
:1037E0000446012144F20400FFF7AEF94FF40070E3
:1037F000ADF8140003208DF8160018208DF817007E
:1038000005A91E48FEF76FFA4FF48060ADF814006A
:1038100004208DF8170005A91848FEF764FA252042
:103820008DF8000003208DF801008DF802000120C2
:103830008DF803006846FEF705FB01940020ADF803
:103840000800ADF80A00ADF80C00ADF810000C202F
:10385000ADF80E0001A90A48FFF768FB012240F20B
:1038600025510748FFF73DFB01210548FFF7F6FA10
:1038700000200449088006B010BD00000008014087
:10388000003801407C00002010B500290AD00878DB
:10389000002807D005487844FDF7A8FC002801D08F
:1038A000002010BD0248784410BD0000FE02000058
:1038B000F602000010B500290AD00878002807D0C9
:1038C00005487844FDF792FC002801D0002010BD87
:1038D0000248784410BD0000EE020000E60200003D
:1038E000FDF727BA000001000200010003000100FB
:1038F00002000100040001000200010003000100B9
:1039000002000100050001000200010003000100A7
:103910000200010004000100020001000300010098
:103920000200010006000100020001000300010086
:103930000200010004000100020001000300010078
:103940000200010005000100020001000300010067
:103950000200010004000100020001000300010058
:103960000200010007000100020001000300010045
:103970000200010004000100020001000300010038
:103980000200010005000100020001000300010027
:103990000200010004000100020001000300010018
:1039A0000200010006000100020001000300010006
:1039B00002000100040001000200010003000100F8
:1039C00002000100050001000200010003000100E7
:1039D00002000100040001000200010003000100D8
:1039E00002000100040000080000000000000002C6
:1039F00000010000100000000000000000000000B6
:103A00003031323334353637383941424344454614
:103A1000403058003031323334353637383961620E
:103A2000636465664030780002400000000000A03A
:103A30000000000005400000000000C80000000079
:103A40000C4000000000409C0000000019400000F5
:103A50000020BCBE0000000034400000BFC91B8E27
:103A600000000004B5400000504BCFD06607E2CF05
:103A7000010000006C4100003E8251AADFEEA73435
:103A800001000000D9420000DCB5A0E23A301F97E7
:103A9000FFFFFFFFB4450000FD25A0C8E9A3C14F0B
:103AA000FFFFFFFFFF3F000000000080000000005C
:103AB000FF3F00000000008000000000415026533E
:103AC0005441E6A8A1E5BC8F20000000535441E614
:103AD000A8A1E5BC8F2000004150E6A8A1E5BC8F5D
:103AE000200000006D6F64756C6531006868683196
:103AF000313232333334340038303836000000008D
:103B000031323334353637380000000057504132F7
:103B10005F50534B000000005750415F57415032F7
:103B20005F50534B000000005750415F50534B0013
:103B30004F50454E0000000057455000205544505E
:103B4000206D6F64756C6500544350207365727608
:103B500065720000777061777061325F6165730034
:103B600054435020636C69656E7400006661737421
:103B700000000000C03C000800000020C800000059
:103B800028010008883D0008C8000020E01E000051
:103B9000440100081C00000043000000F8FFFFFF84
:103BA0000C0000000E0000000F0000002E000000BE
:103BB0001001000043000000F8FFFFFF00404040FC
:103BC00040404040404041414141414040404040F0
:103BD000404040404040404040404040400502029C
:103BE000020202020202020202020202022020205B
:103BF00020202020202020020202020202029090B7
:103C000090909090101010101010101010101010B4
:103C10001010101010101010020202020202888808
:103C20008888888808080808080808080808080814
:103C300008080808080808080202020240000000FC
:103C40000000000000000000000000000000000074
:103C50000000000000000000000000000000000064
:103C60000000000000000000000000000000000054
:103C70000000000000000000000000000000000044
:103C80000000000000000000000000000000000034
:103C90000000000000000000000000000000000024
:103CA0000000000000000000000000000000000014
:103CB0000000000000000000000000000000000004
:103CC0000000000000A24A04000000000000000004
:103CD00001020304060708090000000001020304B2
:103CE000010203040607080902040608F83A00085E
:103CF0006C3B0008543B0008EC3A0008E43A00082A
:103D0000543B0008003B0008CC3A0008D83A0008B1
:103D1000BC3A0008483B0008603B00083C3B0008F8
:103D2000303B0008383B0008283B00080C3B0008EB
:103D3000183B000800000000000000000000000028
:103D40000000000000000000000000000000000073
:103D50000000000000000000000000000000000063
:103D60000000000000000000000000000000000053
:103D70000000000000000000000000000000000043
:083D800000000000000000003B
:04000005080000ED02
:00000001FF
